{
  "contractName": "NFT",
  "abi": [
    {
      "inputs": [],
      "stateMutability": "nonpayable",
      "type": "constructor"
    },
    {
      "anonymous": false,
      "inputs": [
        {
          "indexed": true,
          "internalType": "address",
          "name": "owner",
          "type": "address"
        },
        {
          "indexed": true,
          "internalType": "address",
          "name": "approved",
          "type": "address"
        },
        {
          "indexed": true,
          "internalType": "uint256",
          "name": "tokenId",
          "type": "uint256"
        }
      ],
      "name": "Approval",
      "type": "event"
    },
    {
      "anonymous": false,
      "inputs": [
        {
          "indexed": true,
          "internalType": "address",
          "name": "owner",
          "type": "address"
        },
        {
          "indexed": true,
          "internalType": "address",
          "name": "operator",
          "type": "address"
        },
        {
          "indexed": false,
          "internalType": "bool",
          "name": "approved",
          "type": "bool"
        }
      ],
      "name": "ApprovalForAll",
      "type": "event"
    },
    {
      "anonymous": false,
      "inputs": [
        {
          "indexed": true,
          "internalType": "address",
          "name": "from",
          "type": "address"
        },
        {
          "indexed": true,
          "internalType": "address",
          "name": "to",
          "type": "address"
        },
        {
          "indexed": true,
          "internalType": "uint256",
          "name": "tokenId",
          "type": "uint256"
        }
      ],
      "name": "Transfer",
      "type": "event"
    },
    {
      "anonymous": false,
      "inputs": [
        {
          "indexed": false,
          "internalType": "bytes32",
          "name": "hash",
          "type": "bytes32"
        }
      ],
      "name": "show",
      "type": "event"
    },
    {
      "anonymous": false,
      "inputs": [
        {
          "indexed": false,
          "internalType": "string",
          "name": "hash",
          "type": "string"
        }
      ],
      "name": "showString",
      "type": "event"
    },
    {
      "inputs": [
        {
          "internalType": "address",
          "name": "to",
          "type": "address"
        },
        {
          "internalType": "uint256",
          "name": "tokenId",
          "type": "uint256"
        }
      ],
      "name": "approve",
      "outputs": [],
      "stateMutability": "nonpayable",
      "type": "function"
    },
    {
      "inputs": [
        {
          "internalType": "address",
          "name": "owner",
          "type": "address"
        }
      ],
      "name": "balanceOf",
      "outputs": [
        {
          "internalType": "uint256",
          "name": "",
          "type": "uint256"
        }
      ],
      "stateMutability": "view",
      "type": "function",
      "constant": true
    },
    {
      "inputs": [
        {
          "internalType": "uint256",
          "name": "tokenId",
          "type": "uint256"
        }
      ],
      "name": "getApproved",
      "outputs": [
        {
          "internalType": "address",
          "name": "",
          "type": "address"
        }
      ],
      "stateMutability": "view",
      "type": "function",
      "constant": true
    },
    {
      "inputs": [
        {
          "internalType": "address",
          "name": "owner",
          "type": "address"
        },
        {
          "internalType": "address",
          "name": "operator",
          "type": "address"
        }
      ],
      "name": "isApprovedForAll",
      "outputs": [
        {
          "internalType": "bool",
          "name": "",
          "type": "bool"
        }
      ],
      "stateMutability": "view",
      "type": "function",
      "constant": true
    },
    {
      "inputs": [],
      "name": "name",
      "outputs": [
        {
          "internalType": "string",
          "name": "",
          "type": "string"
        }
      ],
      "stateMutability": "view",
      "type": "function",
      "constant": true
    },
    {
      "inputs": [
        {
          "internalType": "uint256",
          "name": "tokenId",
          "type": "uint256"
        }
      ],
      "name": "ownerOf",
      "outputs": [
        {
          "internalType": "address",
          "name": "",
          "type": "address"
        }
      ],
      "stateMutability": "view",
      "type": "function",
      "constant": true
    },
    {
      "inputs": [
        {
          "internalType": "address",
          "name": "from",
          "type": "address"
        },
        {
          "internalType": "address",
          "name": "to",
          "type": "address"
        },
        {
          "internalType": "uint256",
          "name": "tokenId",
          "type": "uint256"
        }
      ],
      "name": "safeTransferFrom",
      "outputs": [],
      "stateMutability": "nonpayable",
      "type": "function"
    },
    {
      "inputs": [
        {
          "internalType": "address",
          "name": "from",
          "type": "address"
        },
        {
          "internalType": "address",
          "name": "to",
          "type": "address"
        },
        {
          "internalType": "uint256",
          "name": "tokenId",
          "type": "uint256"
        },
        {
          "internalType": "bytes",
          "name": "data",
          "type": "bytes"
        }
      ],
      "name": "safeTransferFrom",
      "outputs": [],
      "stateMutability": "nonpayable",
      "type": "function"
    },
    {
      "inputs": [
        {
          "internalType": "address",
          "name": "operator",
          "type": "address"
        },
        {
          "internalType": "bool",
          "name": "approved",
          "type": "bool"
        }
      ],
      "name": "setApprovalForAll",
      "outputs": [],
      "stateMutability": "nonpayable",
      "type": "function"
    },
    {
      "inputs": [
        {
          "internalType": "bytes4",
          "name": "interfaceId",
          "type": "bytes4"
        }
      ],
      "name": "supportsInterface",
      "outputs": [
        {
          "internalType": "bool",
          "name": "",
          "type": "bool"
        }
      ],
      "stateMutability": "view",
      "type": "function",
      "constant": true
    },
    {
      "inputs": [],
      "name": "symbol",
      "outputs": [
        {
          "internalType": "string",
          "name": "",
          "type": "string"
        }
      ],
      "stateMutability": "view",
      "type": "function",
      "constant": true
    },
    {
      "inputs": [
        {
          "internalType": "address",
          "name": "from",
          "type": "address"
        },
        {
          "internalType": "address",
          "name": "to",
          "type": "address"
        },
        {
          "internalType": "uint256",
          "name": "tokenId",
          "type": "uint256"
        }
      ],
      "name": "transferFrom",
      "outputs": [],
      "stateMutability": "nonpayable",
      "type": "function"
    },
    {
      "inputs": [
        {
          "internalType": "uint256",
          "name": "tokenId",
          "type": "uint256"
        },
        {
          "internalType": "address",
          "name": "receiver",
          "type": "address"
        },
        {
          "internalType": "string",
          "name": "token_url",
          "type": "string"
        },
        {
          "internalType": "bytes32",
          "name": "hashValue",
          "type": "bytes32"
        }
      ],
      "name": "crossChainMint",
      "outputs": [
        {
          "internalType": "bool",
          "name": "",
          "type": "bool"
        }
      ],
      "stateMutability": "nonpayable",
      "type": "function"
    },
    {
      "inputs": [
        {
          "internalType": "uint256",
          "name": "tokenId",
          "type": "uint256"
        }
      ],
      "name": "getHashValue",
      "outputs": [
        {
          "internalType": "bytes32",
          "name": "hashValue",
          "type": "bytes32"
        }
      ],
      "stateMutability": "view",
      "type": "function",
      "constant": true
    },
    {
      "inputs": [
        {
          "internalType": "uint256",
          "name": "tokenId",
          "type": "uint256"
        },
        {
          "internalType": "string",
          "name": "anwser",
          "type": "string"
        }
      ],
      "name": "crossChainClaim",
      "outputs": [
        {
          "internalType": "bool",
          "name": "",
          "type": "bool"
        }
      ],
      "stateMutability": "nonpayable",
      "type": "function"
    },
    {
      "inputs": [
        {
          "internalType": "uint256",
          "name": "tokenId",
          "type": "uint256"
        }
      ],
      "name": "tokenURI",
      "outputs": [
        {
          "internalType": "string",
          "name": "",
          "type": "string"
        }
      ],
      "stateMutability": "view",
      "type": "function",
      "constant": true
    },
    {
      "inputs": [
        {
          "internalType": "uint256",
          "name": "tokenId",
          "type": "uint256"
        }
      ],
      "name": "exists",
      "outputs": [
        {
          "internalType": "bool",
          "name": "",
          "type": "bool"
        }
      ],
      "stateMutability": "view",
      "type": "function",
      "constant": true
    }
  ],
  "bytecode": "0x60806040523480156200001157600080fd5b506040518060400160405280600a81526020017f464c4f572d44414e5445000000000000000000000000000000000000000000008152506040518060400160405280600a81526020017f464c4f572d44414e544500000000000000000000000000000000000000000000815250816000908051906020019062000096929190620000b8565b508060019080519060200190620000af929190620000b8565b505050620001cd565b828054620000c69062000197565b90600052602060002090601f016020900481019282620000ea576000855562000136565b82601f106200010557805160ff191683800117855562000136565b8280016001018555821562000136579182015b828111156200013557825182559160200191906001019062000118565b5b50905062000145919062000149565b5090565b5b80821115620001645760008160009055506001016200014a565b5090565b7f4e487b7100000000000000000000000000000000000000000000000000000000600052602260045260246000fd5b60006002820490506001821680620001b057607f821691505b60208210811415620001c757620001c662000168565b5b50919050565b6129ad80620001dd6000396000f3fe608060405234801561001057600080fd5b506004361061010b5760003560e01c80635fd0d45d116100a257806395d89b411161007157806395d89b4114610302578063a22cb46514610320578063b88d4fde1461033c578063c87b56dd14610358578063e985e9c5146103885761010b565b80635fd0d45d146102425780636352211e146102725780636fbf29e6146102a257806370a08231146102d25761010b565b8063095ea7b3116100de578063095ea7b3146101be57806323b872dd146101da57806342842e0e146101f65780634f558e79146102125761010b565b806301ffc9a71461011057806302304d3d1461014057806306fdde0314610170578063081812fc1461018e575b600080fd5b61012a6004803603810190610125919061197e565b6103b8565b60405161013791906119c6565b60405180910390f35b61015a60048036038101906101559190611bf1565b61049a565b60405161016791906119c6565b60405180910390f35b6101786105d7565b6040516101859190611cfc565b60405180910390f35b6101a860048036038101906101a39190611d1e565b610669565b6040516101b59190611d5a565b60405180910390f35b6101d860048036038101906101d39190611d75565b6106af565b005b6101f460048036038101906101ef9190611db5565b6107c7565b005b610210600480360381019061020b9190611db5565b610827565b005b61022c60048036038101906102279190611d1e565b610847565b60405161023991906119c6565b60405180910390f35b61025c60048036038101906102579190611e08565b610859565b60405161026991906119c6565b60405180910390f35b61028c60048036038101906102879190611d1e565b6109f6565b6040516102999190611d5a565b60405180910390f35b6102bc60048036038101906102b79190611d1e565b610aa8565b6040516102c99190611e73565b60405180910390f35b6102ec60048036038101906102e79190611e8e565b610ac5565b6040516102f99190611eca565b60405180910390f35b61030a610b7d565b6040516103179190611cfc565b60405180910390f35b61033a60048036038101906103359190611f11565b610c0f565b005b61035660048036038101906103519190611ff2565b610c25565b005b610372600480360381019061036d9190611d1e565b610c87565b60405161037f9190611cfc565b60405180910390f35b6103a2600480360381019061039d9190612075565b610d2c565b6040516103af91906119c6565b60405180910390f35b60007f80ac58cd000000000000000000000000000000000000000000000000000000007bffffffffffffffffffffffffffffffffffffffffffffffffffffffff1916827bffffffffffffffffffffffffffffffffffffffffffffffffffffffff1916148061048357507f5b5e139f000000000000000000000000000000000000000000000000000000007bffffffffffffffffffffffffffffffffffffffffffffffffffffffff1916827bffffffffffffffffffffffffffffffffffffffffffffffffffffffff1916145b80610493575061049282610dc0565b5b9050919050565b60008085116104ac576104ab6120b5565b5b600015156104b986610e2a565b1515146104c9576104c86120b5565b5b600073ffffffffffffffffffffffffffffffffffffffff166007600087815260200190815260200160002060009054906101000a900473ffffffffffffffffffffffffffffffffffffffff1673ffffffffffffffffffffffffffffffffffffffff1614610539576105386120b5565b5b8260066000878152602001908152602001600020908051906020019061056092919061186f565b50836007600087815260200190815260200160002060006101000a81548173ffffffffffffffffffffffffffffffffffffffff021916908373ffffffffffffffffffffffffffffffffffffffff16021790555081600860008781526020019081526020016000208190555060019050949350505050565b6060600080546105e690612113565b80601f016020809104026020016040519081016040528092919081815260200182805461061290612113565b801561065f5780601f106106345761010080835404028352916020019161065f565b820191906000526020600020905b81548152906001019060200180831161064257829003601f168201915b5050505050905090565b600061067482610e96565b6004600083815260200190815260200160002060009054906101000a900473ffffffffffffffffffffffffffffffffffffffff169050919050565b60006106ba826109f6565b90508073ffffffffffffffffffffffffffffffffffffffff168373ffffffffffffffffffffffffffffffffffffffff16141561072b576040517f08c379a0000000000000000000000000000000000000000000000000000000008152600401610722906121b7565b60405180910390fd5b8073ffffffffffffffffffffffffffffffffffffffff1661074a610ee1565b73ffffffffffffffffffffffffffffffffffffffff161480610779575061077881610773610ee1565b610d2c565b5b6107b8576040517f08c379a00000000000000000000000000000000000000000000000000000000081526004016107af90612249565b60405180910390fd5b6107c28383610ee9565b505050565b6107d86107d2610ee1565b82610fa2565b610817576040517f08c379a000000000000000000000000000000000000000000000000000000000815260040161080e906122db565b60405180910390fd5b610822838383611037565b505050565b61084283838360405180602001604052806000815250610c25565b505050565b600061085282610e2a565b9050919050565b60008073ffffffffffffffffffffffffffffffffffffffff166007600085815260200190815260200160002060009054906101000a900473ffffffffffffffffffffffffffffffffffffffff1673ffffffffffffffffffffffffffffffffffffffff1614156108cb576108ca6120b5565b5b60006002836040516020016108e09190612337565b6040516020818303038152906040526040516108fc9190612395565b602060405180830381855afa158015610919573d6000803e3d6000fd5b5050506040513d601f19601f8201168201806040525081019061093c91906123c1565b905060086000858152602001908152602001600020548114610961576109606120b5565b5b61099e6007600086815260200190815260200160002060009054906101000a900473ffffffffffffffffffffffffffffffffffffffff168561129e565b6007600085815260200190815260200160002060006101000a81549073ffffffffffffffffffffffffffffffffffffffff02191690556008600085815260200190815260200160002060009055600191505092915050565b6000806002600084815260200190815260200160002060009054906101000a900473ffffffffffffffffffffffffffffffffffffffff169050600073ffffffffffffffffffffffffffffffffffffffff168173ffffffffffffffffffffffffffffffffffffffff161415610a9f576040517f08c379a0000000000000000000000000000000000000000000000000000000008152600401610a969061243a565b60405180910390fd5b80915050919050565b600060086000838152602001908152602001600020549050919050565b60008073ffffffffffffffffffffffffffffffffffffffff168273ffffffffffffffffffffffffffffffffffffffff161415610b36576040517f08c379a0000000000000000000000000000000000000000000000000000000008152600401610b2d906124cc565b60405180910390fd5b600360008373ffffffffffffffffffffffffffffffffffffffff1673ffffffffffffffffffffffffffffffffffffffff168152602001908152602001600020549050919050565b606060018054610b8c90612113565b80601f0160208091040260200160405190810160405280929190818152602001828054610bb890612113565b8015610c055780601f10610bda57610100808354040283529160200191610c05565b820191906000526020600020905b815481529060010190602001808311610be857829003601f168201915b5050505050905090565b610c21610c1a610ee1565b83836112bc565b5050565b610c36610c30610ee1565b83610fa2565b610c75576040517f08c379a0000000000000000000000000000000000000000000000000000000008152600401610c6c906122db565b60405180910390fd5b610c8184848484611429565b50505050565b6060600660008381526020019081526020016000208054610ca790612113565b80601f0160208091040260200160405190810160405280929190818152602001828054610cd390612113565b8015610d205780601f10610cf557610100808354040283529160200191610d20565b820191906000526020600020905b815481529060010190602001808311610d0357829003601f168201915b50505050509050919050565b6000600560008473ffffffffffffffffffffffffffffffffffffffff1673ffffffffffffffffffffffffffffffffffffffff16815260200190815260200160002060008373ffffffffffffffffffffffffffffffffffffffff1673ffffffffffffffffffffffffffffffffffffffff16815260200190815260200160002060009054906101000a900460ff16905092915050565b60007f01ffc9a7000000000000000000000000000000000000000000000000000000007bffffffffffffffffffffffffffffffffffffffffffffffffffffffff1916827bffffffffffffffffffffffffffffffffffffffffffffffffffffffff1916149050919050565b60008073ffffffffffffffffffffffffffffffffffffffff166002600084815260200190815260200160002060009054906101000a900473ffffffffffffffffffffffffffffffffffffffff1673ffffffffffffffffffffffffffffffffffffffff1614159050919050565b610e9f81610e2a565b610ede576040517f08c379a0000000000000000000000000000000000000000000000000000000008152600401610ed59061243a565b60405180910390fd5b50565b600033905090565b816004600083815260200190815260200160002060006101000a81548173ffffffffffffffffffffffffffffffffffffffff021916908373ffffffffffffffffffffffffffffffffffffffff160217905550808273ffffffffffffffffffffffffffffffffffffffff16610f5c836109f6565b73ffffffffffffffffffffffffffffffffffffffff167f8c5be1e5ebec7d5bd14f71427d1e84f3dd0314c0f7b2291e5b200ac8c7c3b92560405160405180910390a45050565b600080610fae836109f6565b90508073ffffffffffffffffffffffffffffffffffffffff168473ffffffffffffffffffffffffffffffffffffffff161480610ff05750610fef8185610d2c565b5b8061102e57508373ffffffffffffffffffffffffffffffffffffffff1661101684610669565b73ffffffffffffffffffffffffffffffffffffffff16145b91505092915050565b8273ffffffffffffffffffffffffffffffffffffffff16611057826109f6565b73ffffffffffffffffffffffffffffffffffffffff16146110ad576040517f08c379a00000000000000000000000000000000000000000000000000000000081526004016110a49061255e565b60405180910390fd5b600073ffffffffffffffffffffffffffffffffffffffff168273ffffffffffffffffffffffffffffffffffffffff16141561111d576040517f08c379a0000000000000000000000000000000000000000000000000000000008152600401611114906125f0565b60405180910390fd5b611128838383611485565b611133600082610ee9565b6001600360008573ffffffffffffffffffffffffffffffffffffffff1673ffffffffffffffffffffffffffffffffffffffff1681526020019081526020016000206000828254611183919061263f565b925050819055506001600360008473ffffffffffffffffffffffffffffffffffffffff1673ffffffffffffffffffffffffffffffffffffffff16815260200190815260200160002060008282546111da9190612673565b92505081905550816002600083815260200190815260200160002060006101000a81548173ffffffffffffffffffffffffffffffffffffffff021916908373ffffffffffffffffffffffffffffffffffffffff160217905550808273ffffffffffffffffffffffffffffffffffffffff168473ffffffffffffffffffffffffffffffffffffffff167fddf252ad1be2c89b69c2b068fc378daa952ba7f163c4a11628f55a4df523b3ef60405160405180910390a461129983838361148a565b505050565b6112b882826040518060200160405280600081525061148f565b5050565b8173ffffffffffffffffffffffffffffffffffffffff168373ffffffffffffffffffffffffffffffffffffffff16141561132b576040517f08c379a000000000000000000000000000000000000000000000000000000000815260040161132290612715565b60405180910390fd5b80600560008573ffffffffffffffffffffffffffffffffffffffff1673ffffffffffffffffffffffffffffffffffffffff16815260200190815260200160002060008473ffffffffffffffffffffffffffffffffffffffff1673ffffffffffffffffffffffffffffffffffffffff16815260200190815260200160002060006101000a81548160ff0219169083151502179055508173ffffffffffffffffffffffffffffffffffffffff168373ffffffffffffffffffffffffffffffffffffffff167f17307eab39ab6107e8899845ad3d59bd9653f200f220920489ca2b5937696c318360405161141c91906119c6565b60405180910390a3505050565b611434848484611037565b611440848484846114ea565b61147f576040517f08c379a0000000000000000000000000000000000000000000000000000000008152600401611476906127a7565b60405180910390fd5b50505050565b505050565b505050565b6114998383611672565b6114a660008484846114ea565b6114e5576040517f08c379a00000000000000000000000000000000000000000000000000000000081526004016114dc906127a7565b60405180910390fd5b505050565b600061150b8473ffffffffffffffffffffffffffffffffffffffff1661184c565b15611665578373ffffffffffffffffffffffffffffffffffffffff1663150b7a02611534610ee1565b8786866040518563ffffffff1660e01b81526004016115569493929190612811565b6020604051808303816000875af192505050801561159257506040513d601f19601f8201168201806040525081019061158f9190612872565b60015b611615573d80600081146115c2576040519150601f19603f3d011682016040523d82523d6000602084013e6115c7565b606091505b5060008151141561160d576040517f08c379a0000000000000000000000000000000000000000000000000000000008152600401611604906127a7565b60405180910390fd5b805181602001fd5b63150b7a0260e01b7bffffffffffffffffffffffffffffffffffffffffffffffffffffffff1916817bffffffffffffffffffffffffffffffffffffffffffffffffffffffff19161491505061166a565b600190505b949350505050565b600073ffffffffffffffffffffffffffffffffffffffff168273ffffffffffffffffffffffffffffffffffffffff1614156116e2576040517f08c379a00000000000000000000000000000000000000000000000000000000081526004016116d9906128eb565b60405180910390fd5b6116eb81610e2a565b1561172b576040517f08c379a000000000000000000000000000000000000000000000000000000000815260040161172290612957565b60405180910390fd5b61173760008383611485565b6001600360008473ffffffffffffffffffffffffffffffffffffffff1673ffffffffffffffffffffffffffffffffffffffff16815260200190815260200160002060008282546117879190612673565b92505081905550816002600083815260200190815260200160002060006101000a81548173ffffffffffffffffffffffffffffffffffffffff021916908373ffffffffffffffffffffffffffffffffffffffff160217905550808273ffffffffffffffffffffffffffffffffffffffff16600073ffffffffffffffffffffffffffffffffffffffff167fddf252ad1be2c89b69c2b068fc378daa952ba7f163c4a11628f55a4df523b3ef60405160405180910390a46118486000838361148a565b5050565b6000808273ffffffffffffffffffffffffffffffffffffffff163b119050919050565b82805461187b90612113565b90600052602060002090601f01602090048101928261189d57600085556118e4565b82601f106118b657805160ff19168380011785556118e4565b828001600101855582156118e4579182015b828111156118e35782518255916020019190600101906118c8565b5b5090506118f191906118f5565b5090565b5b8082111561190e5760008160009055506001016118f6565b5090565b6000604051905090565b600080fd5b600080fd5b60007fffffffff0000000000000000000000000000000000000000000000000000000082169050919050565b61195b81611926565b811461196657600080fd5b50565b60008135905061197881611952565b92915050565b6000602082840312156119945761199361191c565b5b60006119a284828501611969565b91505092915050565b60008115159050919050565b6119c0816119ab565b82525050565b60006020820190506119db60008301846119b7565b92915050565b6000819050919050565b6119f4816119e1565b81146119ff57600080fd5b50565b600081359050611a11816119eb565b92915050565b600073ffffffffffffffffffffffffffffffffffffffff82169050919050565b6000611a4282611a17565b9050919050565b611a5281611a37565b8114611a5d57600080fd5b50565b600081359050611a6f81611a49565b92915050565b600080fd5b600080fd5b6000601f19601f8301169050919050565b7f4e487b7100000000000000000000000000000000000000000000000000000000600052604160045260246000fd5b611ac882611a7f565b810181811067ffffffffffffffff82111715611ae757611ae6611a90565b5b80604052505050565b6000611afa611912565b9050611b068282611abf565b919050565b600067ffffffffffffffff821115611b2657611b25611a90565b5b611b2f82611a7f565b9050602081019050919050565b82818337600083830152505050565b6000611b5e611b5984611b0b565b611af0565b905082815260208101848484011115611b7a57611b79611a7a565b5b611b85848285611b3c565b509392505050565b600082601f830112611ba257611ba1611a75565b5b8135611bb2848260208601611b4b565b91505092915050565b6000819050919050565b611bce81611bbb565b8114611bd957600080fd5b50565b600081359050611beb81611bc5565b92915050565b60008060008060808587031215611c0b57611c0a61191c565b5b6000611c1987828801611a02565b9450506020611c2a87828801611a60565b935050604085013567ffffffffffffffff811115611c4b57611c4a611921565b5b611c5787828801611b8d565b9250506060611c6887828801611bdc565b91505092959194509250565b600081519050919050565b600082825260208201905092915050565b60005b83811015611cae578082015181840152602081019050611c93565b83811115611cbd576000848401525b50505050565b6000611cce82611c74565b611cd88185611c7f565b9350611ce8818560208601611c90565b611cf181611a7f565b840191505092915050565b60006020820190508181036000830152611d168184611cc3565b905092915050565b600060208284031215611d3457611d3361191c565b5b6000611d4284828501611a02565b91505092915050565b611d5481611a37565b82525050565b6000602082019050611d6f6000830184611d4b565b92915050565b60008060408385031215611d8c57611d8b61191c565b5b6000611d9a85828601611a60565b9250506020611dab85828601611a02565b9150509250929050565b600080600060608486031215611dce57611dcd61191c565b5b6000611ddc86828701611a60565b9350506020611ded86828701611a60565b9250506040611dfe86828701611a02565b9150509250925092565b60008060408385031215611e1f57611e1e61191c565b5b6000611e2d85828601611a02565b925050602083013567ffffffffffffffff811115611e4e57611e4d611921565b5b611e5a85828601611b8d565b9150509250929050565b611e6d81611bbb565b82525050565b6000602082019050611e886000830184611e64565b92915050565b600060208284031215611ea457611ea361191c565b5b6000611eb284828501611a60565b91505092915050565b611ec4816119e1565b82525050565b6000602082019050611edf6000830184611ebb565b92915050565b611eee816119ab565b8114611ef957600080fd5b50565b600081359050611f0b81611ee5565b92915050565b60008060408385031215611f2857611f2761191c565b5b6000611f3685828601611a60565b9250506020611f4785828601611efc565b9150509250929050565b600067ffffffffffffffff821115611f6c57611f6b611a90565b5b611f7582611a7f565b9050602081019050919050565b6000611f95611f9084611f51565b611af0565b905082815260208101848484011115611fb157611fb0611a7a565b5b611fbc848285611b3c565b509392505050565b600082601f830112611fd957611fd8611a75565b5b8135611fe9848260208601611f82565b91505092915050565b6000806000806080858703121561200c5761200b61191c565b5b600061201a87828801611a60565b945050602061202b87828801611a60565b935050604061203c87828801611a02565b925050606085013567ffffffffffffffff81111561205d5761205c611921565b5b61206987828801611fc4565b91505092959194509250565b6000806040838503121561208c5761208b61191c565b5b600061209a85828601611a60565b92505060206120ab85828601611a60565b9150509250929050565b7f4e487b7100000000000000000000000000000000000000000000000000000000600052600160045260246000fd5b7f4e487b7100000000000000000000000000000000000000000000000000000000600052602260045260246000fd5b6000600282049050600182168061212b57607f821691505b6020821081141561213f5761213e6120e4565b5b50919050565b7f4552433732313a20617070726f76616c20746f2063757272656e74206f776e6560008201527f7200000000000000000000000000000000000000000000000000000000000000602082015250565b60006121a1602183611c7f565b91506121ac82612145565b604082019050919050565b600060208201905081810360008301526121d081612194565b9050919050565b7f4552433732313a20617070726f76652063616c6c6572206973206e6f7420746f60008201527f6b656e206f776e6572206e6f7220617070726f76656420666f7220616c6c0000602082015250565b6000612233603e83611c7f565b915061223e826121d7565b604082019050919050565b6000602082019050818103600083015261226281612226565b9050919050565b7f4552433732313a2063616c6c6572206973206e6f7420746f6b656e206f776e6560008201527f72206e6f7220617070726f766564000000000000000000000000000000000000602082015250565b60006122c5602e83611c7f565b91506122d082612269565b604082019050919050565b600060208201905081810360008301526122f4816122b8565b9050919050565b600081905092915050565b600061231182611c74565b61231b81856122fb565b935061232b818560208601611c90565b80840191505092915050565b60006123438284612306565b915081905092915050565b600081519050919050565b600081905092915050565b600061236f8261234e565b6123798185612359565b9350612389818560208601611c90565b80840191505092915050565b60006123a18284612364565b915081905092915050565b6000815190506123bb81611bc5565b92915050565b6000602082840312156123d7576123d661191c565b5b60006123e5848285016123ac565b91505092915050565b7f4552433732313a20696e76616c696420746f6b656e2049440000000000000000600082015250565b6000612424601883611c7f565b915061242f826123ee565b602082019050919050565b6000602082019050818103600083015261245381612417565b9050919050565b7f4552433732313a2061646472657373207a65726f206973206e6f74206120766160008201527f6c6964206f776e65720000000000000000000000000000000000000000000000602082015250565b60006124b6602983611c7f565b91506124c18261245a565b604082019050919050565b600060208201905081810360008301526124e5816124a9565b9050919050565b7f4552433732313a207472616e736665722066726f6d20696e636f72726563742060008201527f6f776e6572000000000000000000000000000000000000000000000000000000602082015250565b6000612548602583611c7f565b9150612553826124ec565b604082019050919050565b600060208201905081810360008301526125778161253b565b9050919050565b7f4552433732313a207472616e7366657220746f20746865207a65726f2061646460008201527f7265737300000000000000000000000000000000000000000000000000000000602082015250565b60006125da602483611c7f565b91506125e58261257e565b604082019050919050565b60006020820190508181036000830152612609816125cd565b9050919050565b7f4e487b7100000000000000000000000000000000000000000000000000000000600052601160045260246000fd5b600061264a826119e1565b9150612655836119e1565b92508282101561266857612667612610565b5b828203905092915050565b600061267e826119e1565b9150612689836119e1565b9250827fffffffffffffffffffffffffffffffffffffffffffffffffffffffffffffffff038211156126be576126bd612610565b5b828201905092915050565b7f4552433732313a20617070726f766520746f2063616c6c657200000000000000600082015250565b60006126ff601983611c7f565b915061270a826126c9565b602082019050919050565b6000602082019050818103600083015261272e816126f2565b9050919050565b7f4552433732313a207472616e7366657220746f206e6f6e20455243373231526560008201527f63656976657220696d706c656d656e7465720000000000000000000000000000602082015250565b6000612791603283611c7f565b915061279c82612735565b604082019050919050565b600060208201905081810360008301526127c081612784565b9050919050565b600082825260208201905092915050565b60006127e38261234e565b6127ed81856127c7565b93506127fd818560208601611c90565b61280681611a7f565b840191505092915050565b60006080820190506128266000830187611d4b565b6128336020830186611d4b565b6128406040830185611ebb565b818103606083015261285281846127d8565b905095945050505050565b60008151905061286c81611952565b92915050565b6000602082840312156128885761288761191c565b5b60006128968482850161285d565b91505092915050565b7f4552433732313a206d696e7420746f20746865207a65726f2061646472657373600082015250565b60006128d5602083611c7f565b91506128e08261289f565b602082019050919050565b60006020820190508181036000830152612904816128c8565b9050919050565b7f4552433732313a20746f6b656e20616c7265616479206d696e74656400000000600082015250565b6000612941601c83611c7f565b915061294c8261290b565b602082019050919050565b6000602082019050818103600083015261297081612934565b905091905056fea26469706673582212204fdfabc1f67e8336d85d8073722fa81930e32051c2324be803865eb2fa29c77a64736f6c634300080a0033",
  "immutableReferences": {},
  "source": "// SPDX-License-Identifier: MIT\npragma solidity ^0.8.0;\n\nimport \"@openzeppelin/contracts/token/ERC721/ERC721.sol\";\nimport \"@openzeppelin/contracts/utils/Counters.sol\";\n\ncontract NFT is ERC721 {\n    mapping(uint256 => string) tokens;\n    mapping(uint256 => address) receivers;\n    mapping(uint256 => bytes32) hashValues;\n\n    constructor() ERC721(\"FLOW-DANTE\", \"FLOW-DANTE\") {\n    }\n\n    event show(bytes32 hash);\n    event showString(string hash);\n\n    function crossChainMint(uint256 tokenId, address receiver, string memory token_url, bytes32 hashValue) public returns (bool){\n        assert(tokenId > 0);\n        // ensure token is not exists\n        assert(_exists(tokenId) == false);\n        assert(receivers[tokenId] == address(0));\n\n        tokens[tokenId] = token_url;\n        receivers[tokenId] = receiver;\n        hashValues[tokenId] = hashValue;\n\n        return true;\n    }\n\n    function getHashValue(uint256 tokenId) public view virtual returns (bytes32 hashValue){\n        return hashValues[tokenId];\n    }\n\n    function crossChainClaim(uint256 tokenId, string memory anwser) public returns (bool){\n        // ensure token is exists\n        assert(receivers[tokenId] != address(0));\n                \n        // compare hashed value\n        bytes32 anwserHashValue = sha256(abi.encodePacked(anwser));\n        assert(anwserHashValue == hashValues[tokenId]);\n        \n        _safeMint(receivers[tokenId], tokenId);\n\n        delete receivers[tokenId];\n        delete hashValues[tokenId];\n        \n        return true;\n    }\n\n    /// @dev Returns an URI for a given token ID\n    function tokenURI(uint256 tokenId) public view virtual override returns (string memory) {\n        return tokens[tokenId];\n    }\n\n    /**\n     * @dev Returns whether `tokenId` exists.\n     *\n     * Tokens can be managed by their owner or approved accounts via {approve} or {setApprovalForAll}.\n     *\n     * Tokens start existing when they are minted (`_mint`),\n     * and stop existing when they are burned (`_burn`).\n     */\n    function exists(uint256 tokenId) public view virtual returns (bool) {\n        return _exists(tokenId);\n    }\n}\n",
  "sourcePath": "/home/wuyahuang/cadence-contracts/erc721/contracts/NFT.sol",
  "compiler": {
    "name": "solc",
    "version": "0.8.10+commit.fc410830.Emscripten.clang"
  },
  "schemaVersion": "3.4.8",
  "updatedAt": "2022-07-15T10:07:26.553Z",
  "networkType": "ethereum",
  "devdoc": {
    "kind": "dev",
    "methods": {
      "approve(address,uint256)": {
        "details": "See {IERC721-approve}."
      },
      "balanceOf(address)": {
        "details": "See {IERC721-balanceOf}."
      },
      "exists(uint256)": {
        "details": "Returns whether `tokenId` exists. Tokens can be managed by their owner or approved accounts via {approve} or {setApprovalForAll}. Tokens start existing when they are minted (`_mint`), and stop existing when they are burned (`_burn`)."
      },
      "getApproved(uint256)": {
        "details": "See {IERC721-getApproved}."
      },
      "isApprovedForAll(address,address)": {
        "details": "See {IERC721-isApprovedForAll}."
      },
      "name()": {
        "details": "See {IERC721Metadata-name}."
      },
      "ownerOf(uint256)": {
        "details": "See {IERC721-ownerOf}."
      },
      "safeTransferFrom(address,address,uint256)": {
        "details": "See {IERC721-safeTransferFrom}."
      },
      "safeTransferFrom(address,address,uint256,bytes)": {
        "details": "See {IERC721-safeTransferFrom}."
      },
      "setApprovalForAll(address,bool)": {
        "details": "See {IERC721-setApprovalForAll}."
      },
      "supportsInterface(bytes4)": {
        "details": "See {IERC165-supportsInterface}."
      },
      "symbol()": {
        "details": "See {IERC721Metadata-symbol}."
      },
      "tokenURI(uint256)": {
        "details": "Returns an URI for a given token ID"
      },
      "transferFrom(address,address,uint256)": {
        "details": "See {IERC721-transferFrom}."
      }
    },
    "version": 1
  },
  "userdoc": {
    "kind": "user",
    "methods": {},
    "version": 1
  }
}