{
    "contractName": "NFT",
    "abi": [
        {
            "inputs": [],
            "stateMutability": "nonpayable",
            "type": "constructor"
        },
        {
            "anonymous": false,
            "inputs": [
                {
                    "indexed": true,
                    "internalType": "address",
                    "name": "owner",
                    "type": "address"
                },
                {
                    "indexed": true,
                    "internalType": "address",
                    "name": "approved",
                    "type": "address"
                },
                {
                    "indexed": true,
                    "internalType": "uint256",
                    "name": "tokenId",
                    "type": "uint256"
                }
            ],
            "name": "Approval",
            "type": "event"
        },
        {
            "anonymous": false,
            "inputs": [
                {
                    "indexed": true,
                    "internalType": "address",
                    "name": "owner",
                    "type": "address"
                },
                {
                    "indexed": true,
                    "internalType": "address",
                    "name": "operator",
                    "type": "address"
                },
                {
                    "indexed": false,
                    "internalType": "bool",
                    "name": "approved",
                    "type": "bool"
                }
            ],
            "name": "ApprovalForAll",
            "type": "event"
        },
        {
            "anonymous": false,
            "inputs": [
                {
                    "indexed": true,
                    "internalType": "address",
                    "name": "from",
                    "type": "address"
                },
                {
                    "indexed": true,
                    "internalType": "address",
                    "name": "to",
                    "type": "address"
                },
                {
                    "indexed": true,
                    "internalType": "uint256",
                    "name": "tokenId",
                    "type": "uint256"
                }
            ],
            "name": "Transfer",
            "type": "event"
        },
        {
            "anonymous": false,
            "inputs": [
                {
                    "indexed": false,
                    "internalType": "bytes32",
                    "name": "hash",
                    "type": "bytes32"
                }
            ],
            "name": "show",
            "type": "event"
        },
        {
            "anonymous": false,
            "inputs": [
                {
                    "indexed": false,
                    "internalType": "string",
                    "name": "hash",
                    "type": "string"
                }
            ],
            "name": "showString",
            "type": "event"
        },
        {
            "inputs": [
                {
                    "internalType": "address",
                    "name": "to",
                    "type": "address"
                },
                {
                    "internalType": "uint256",
                    "name": "tokenId",
                    "type": "uint256"
                }
            ],
            "name": "approve",
            "outputs": [],
            "stateMutability": "nonpayable",
            "type": "function"
        },
        {
            "inputs": [
                {
                    "internalType": "address",
                    "name": "owner",
                    "type": "address"
                }
            ],
            "name": "balanceOf",
            "outputs": [
                {
                    "internalType": "uint256",
                    "name": "",
                    "type": "uint256"
                }
            ],
            "stateMutability": "view",
            "type": "function",
            "constant": true
        },
        {
            "inputs": [
                {
                    "internalType": "uint256",
                    "name": "tokenId",
                    "type": "uint256"
                }
            ],
            "name": "getApproved",
            "outputs": [
                {
                    "internalType": "address",
                    "name": "",
                    "type": "address"
                }
            ],
            "stateMutability": "view",
            "type": "function",
            "constant": true
        },
        {
            "inputs": [
                {
                    "internalType": "address",
                    "name": "owner",
                    "type": "address"
                },
                {
                    "internalType": "address",
                    "name": "operator",
                    "type": "address"
                }
            ],
            "name": "isApprovedForAll",
            "outputs": [
                {
                    "internalType": "bool",
                    "name": "",
                    "type": "bool"
                }
            ],
            "stateMutability": "view",
            "type": "function",
            "constant": true
        },
        {
            "inputs": [],
            "name": "name",
            "outputs": [
                {
                    "internalType": "string",
                    "name": "",
                    "type": "string"
                }
            ],
            "stateMutability": "view",
            "type": "function",
            "constant": true
        },
        {
            "inputs": [
                {
                    "internalType": "uint256",
                    "name": "tokenId",
                    "type": "uint256"
                }
            ],
            "name": "ownerOf",
            "outputs": [
                {
                    "internalType": "address",
                    "name": "",
                    "type": "address"
                }
            ],
            "stateMutability": "view",
            "type": "function",
            "constant": true
        },
        {
            "inputs": [
                {
                    "internalType": "address",
                    "name": "from",
                    "type": "address"
                },
                {
                    "internalType": "address",
                    "name": "to",
                    "type": "address"
                },
                {
                    "internalType": "uint256",
                    "name": "tokenId",
                    "type": "uint256"
                }
            ],
            "name": "safeTransferFrom",
            "outputs": [],
            "stateMutability": "nonpayable",
            "type": "function"
        },
        {
            "inputs": [
                {
                    "internalType": "address",
                    "name": "from",
                    "type": "address"
                },
                {
                    "internalType": "address",
                    "name": "to",
                    "type": "address"
                },
                {
                    "internalType": "uint256",
                    "name": "tokenId",
                    "type": "uint256"
                },
                {
                    "internalType": "bytes",
                    "name": "data",
                    "type": "bytes"
                }
            ],
            "name": "safeTransferFrom",
            "outputs": [],
            "stateMutability": "nonpayable",
            "type": "function"
        },
        {
            "inputs": [
                {
                    "internalType": "address",
                    "name": "operator",
                    "type": "address"
                },
                {
                    "internalType": "bool",
                    "name": "approved",
                    "type": "bool"
                }
            ],
            "name": "setApprovalForAll",
            "outputs": [],
            "stateMutability": "nonpayable",
            "type": "function"
        },
        {
            "inputs": [
                {
                    "internalType": "bytes4",
                    "name": "interfaceId",
                    "type": "bytes4"
                }
            ],
            "name": "supportsInterface",
            "outputs": [
                {
                    "internalType": "bool",
                    "name": "",
                    "type": "bool"
                }
            ],
            "stateMutability": "view",
            "type": "function",
            "constant": true
        },
        {
            "inputs": [],
            "name": "symbol",
            "outputs": [
                {
                    "internalType": "string",
                    "name": "",
                    "type": "string"
                }
            ],
            "stateMutability": "view",
            "type": "function",
            "constant": true
        },
        {
            "inputs": [
                {
                    "internalType": "address",
                    "name": "from",
                    "type": "address"
                },
                {
                    "internalType": "address",
                    "name": "to",
                    "type": "address"
                },
                {
                    "internalType": "uint256",
                    "name": "tokenId",
                    "type": "uint256"
                }
            ],
            "name": "transferFrom",
            "outputs": [],
            "stateMutability": "nonpayable",
            "type": "function"
        },
        {
            "inputs": [
                {
                    "internalType": "uint256",
                    "name": "tokenId",
                    "type": "uint256"
                },
                {
                    "internalType": "address",
                    "name": "receiver",
                    "type": "address"
                },
                {
                    "internalType": "string",
                    "name": "tokenURL",
                    "type": "string"
                },
                {
                    "internalType": "bytes32",
                    "name": "hashValue",
                    "type": "bytes32"
                }
            ],
            "name": "crossChainMint",
            "outputs": [
                {
                    "internalType": "bool",
                    "name": "",
                    "type": "bool"
                }
            ],
            "stateMutability": "nonpayable",
            "type": "function"
        },
        {
            "inputs": [
                {
                    "internalType": "uint256",
                    "name": "tokenId",
                    "type": "uint256"
                }
            ],
            "name": "getHashValue",
            "outputs": [
                {
                    "internalType": "bytes32",
                    "name": "hashValue",
                    "type": "bytes32"
                }
            ],
            "stateMutability": "view",
            "type": "function",
            "constant": true
        },
        {
            "inputs": [
                {
                    "internalType": "uint256",
                    "name": "tokenId",
                    "type": "uint256"
                },
                {
                    "internalType": "string",
                    "name": "anwser",
                    "type": "string"
                }
            ],
            "name": "crossChainClaim",
            "outputs": [
                {
                    "internalType": "bool",
                    "name": "",
                    "type": "bool"
                }
            ],
            "stateMutability": "nonpayable",
            "type": "function"
        },
        {
            "inputs": [
                {
                    "internalType": "uint256",
                    "name": "tokenId",
                    "type": "uint256"
                },
                {
                    "internalType": "string",
                    "name": "receiver",
                    "type": "string"
                },
                {
                    "internalType": "string",
                    "name": "hashValue",
                    "type": "string"
                }
            ],
            "name": "crossChainTransfer",
            "outputs": [
                {
                    "internalType": "bool",
                    "name": "",
                    "type": "bool"
                }
            ],
            "stateMutability": "nonpayable",
            "type": "function"
        },
        {
            "inputs": [
                {
                    "internalType": "uint256",
                    "name": "tokenId",
                    "type": "uint256"
                }
            ],
            "name": "queryCrossChainPending",
            "outputs": [
                {
                    "internalType": "string[3]",
                    "name": "",
                    "type": "string[3]"
                }
            ],
            "stateMutability": "view",
            "type": "function",
            "constant": true
        },
        {
            "inputs": [
                {
                    "internalType": "uint256",
                    "name": "tokenId",
                    "type": "uint256"
                }
            ],
            "name": "tokenURI",
            "outputs": [
                {
                    "internalType": "string",
                    "name": "",
                    "type": "string"
                }
            ],
            "stateMutability": "view",
            "type": "function",
            "constant": true
        },
        {
            "inputs": [
                {
                    "internalType": "uint256",
                    "name": "tokenId",
                    "type": "uint256"
                }
            ],
            "name": "exists",
            "outputs": [
                {
                    "internalType": "bool",
                    "name": "",
                    "type": "bool"
                }
            ],
            "stateMutability": "view",
            "type": "function",
            "constant": true
        },
        {
            "inputs": [
                {
                    "internalType": "uint256",
                    "name": "tokenId",
                    "type": "uint256"
                }
            ],
            "name": "burn",
            "outputs": [],
            "stateMutability": "nonpayable",
            "type": "function"
        }
    ],
    "bytecode": "0x60806040523480156200001157600080fd5b506040518060400160405280600a81526020017f464c4f572d44414e5445000000000000000000000000000000000000000000008152506040518060400160405280600a81526020017f464c4f572d44414e544500000000000000000000000000000000000000000000815250816000908051906020019062000096929190620000b8565b508060019080519060200190620000af929190620000b8565b505050620001cd565b828054620000c69062000197565b90600052602060002090601f016020900481019282620000ea576000855562000136565b82601f106200010557805160ff191683800117855562000136565b8280016001018555821562000136579182015b828111156200013557825182559160200191906001019062000118565b5b50905062000145919062000149565b5090565b5b80821115620001645760008160009055506001016200014a565b5090565b7f4e487b7100000000000000000000000000000000000000000000000000000000600052602260045260246000fd5b60006002820490506001821680620001b057607f821691505b60208210811415620001c757620001c662000168565b5b50919050565b612ffe80620001dd6000396000f3fe608060405234801561001057600080fd5b506004361061012c5760003560e01c80636352211e116100ad578063a6805fd511610071578063a6805fd514610379578063b37497af146103a9578063b88d4fde146103d9578063c87b56dd146103f5578063e985e9c5146104255761012c565b80636352211e146102af5780636fbf29e6146102df57806370a082311461030f57806395d89b411461033f578063a22cb4651461035d5761012c565b806323b872dd116100f457806323b872dd146101fb57806342842e0e1461021757806342966c68146102335780634f558e791461024f5780635fd0d45d1461027f5761012c565b806301ffc9a71461013157806302304d3d1461016157806306fdde0314610191578063081812fc146101af578063095ea7b3146101df575b600080fd5b61014b60048036038101906101469190611e22565b610455565b6040516101589190611e6a565b60405180910390f35b61017b60048036038101906101769190612095565b610537565b6040516101889190611e6a565b60405180910390f35b610199610674565b6040516101a691906121a0565b60405180910390f35b6101c960048036038101906101c491906121c2565b610706565b6040516101d691906121fe565b60405180910390f35b6101f960048036038101906101f49190612219565b61074c565b005b61021560048036038101906102109190612259565b610864565b005b610231600480360381019061022c9190612259565b6108c4565b005b61024d600480360381019061024891906121c2565b6108e4565b005b610269600480360381019061026491906121c2565b6108f0565b6040516102769190611e6a565b60405180910390f35b610299600480360381019061029491906122ac565b610902565b6040516102a69190611e6a565b60405180910390f35b6102c960048036038101906102c491906121c2565b610a9e565b6040516102d691906121fe565b60405180910390f35b6102f960048036038101906102f491906121c2565b610b50565b6040516103069190612317565b60405180910390f35b61032960048036038101906103249190612332565b610b6d565b604051610336919061236e565b60405180910390f35b610347610c25565b60405161035491906121a0565b60405180910390f35b610377600480360381019061037291906123b5565b610cb7565b005b610393600480360381019061038e91906123f5565b610ccd565b6040516103a09190611e6a565b60405180910390f35b6103c360048036038101906103be91906121c2565b610dee565b6040516103d09190612580565b60405180910390f35b6103f360048036038101906103ee9190612643565b610ece565b005b61040f600480360381019061040a91906121c2565b610f30565b60405161041c91906121a0565b60405180910390f35b61043f600480360381019061043a91906126c6565b610fd5565b60405161044c9190611e6a565b60405180910390f35b60007f80ac58cd000000000000000000000000000000000000000000000000000000007bffffffffffffffffffffffffffffffffffffffffffffffffffffffff1916827bffffffffffffffffffffffffffffffffffffffffffffffffffffffff1916148061052057507f5b5e139f000000000000000000000000000000000000000000000000000000007bffffffffffffffffffffffffffffffffffffffffffffffffffffffff1916827bffffffffffffffffffffffffffffffffffffffffffffffffffffffff1916145b80610530575061052f82611069565b5b9050919050565b600080851161054957610548612706565b5b60001515610556866110d3565b15151461056657610565612706565b5b600073ffffffffffffffffffffffffffffffffffffffff166007600087815260200190815260200160002060009054906101000a900473ffffffffffffffffffffffffffffffffffffffff1673ffffffffffffffffffffffffffffffffffffffff16146105d6576105d5612706565b5b826006600087815260200190815260200160002090805190602001906105fd929190611c35565b50836007600087815260200190815260200160002060006101000a81548173ffffffffffffffffffffffffffffffffffffffff021916908373ffffffffffffffffffffffffffffffffffffffff16021790555081600860008781526020019081526020016000208190555060019050949350505050565b60606000805461068390612764565b80601f01602080910402602001604051908101604052809291908181526020018280546106af90612764565b80156106fc5780601f106106d1576101008083540402835291602001916106fc565b820191906000526020600020905b8154815290600101906020018083116106df57829003601f168201915b5050505050905090565b60006107118261113f565b6004600083815260200190815260200160002060009054906101000a900473ffffffffffffffffffffffffffffffffffffffff169050919050565b600061075782610a9e565b90508073ffffffffffffffffffffffffffffffffffffffff168373ffffffffffffffffffffffffffffffffffffffff1614156107c8576040517f08c379a00000000000000000000000000000000000000000000000000000000081526004016107bf90612808565b60405180910390fd5b8073ffffffffffffffffffffffffffffffffffffffff166107e761118a565b73ffffffffffffffffffffffffffffffffffffffff16148061081657506108158161081061118a565b610fd5565b5b610855576040517f08c379a000000000000000000000000000000000000000000000000000000000815260040161084c9061289a565b60405180910390fd5b61085f8383611192565b505050565b61087561086f61118a565b8261124b565b6108b4576040517f08c379a00000000000000000000000000000000000000000000000000000000081526004016108ab9061292c565b60405180910390fd5b6108bf8383836112e0565b505050565b6108df83838360405180602001604052806000815250610ece565b505050565b6108ed81611547565b50565b60006108fb826110d3565b9050919050565b60003373ffffffffffffffffffffffffffffffffffffffff166007600085815260200190815260200160002060009054906101000a900473ffffffffffffffffffffffffffffffffffffffff1673ffffffffffffffffffffffffffffffffffffffff161461097357610972612706565b5b60006002836040516020016109889190612988565b6040516020818303038152906040526040516109a491906129e6565b602060405180830381855afa1580156109c1573d6000803e3d6000fd5b5050506040513d601f19601f820116820180604052508101906109e49190612a12565b905060086000858152602001908152602001600020548114610a0957610a08612706565b5b610a466007600086815260200190815260200160002060009054906101000a900473ffffffffffffffffffffffffffffffffffffffff1685611664565b6007600085815260200190815260200160002060006101000a81549073ffffffffffffffffffffffffffffffffffffffff02191690556008600085815260200190815260200160002060009055600191505092915050565b6000806002600084815260200190815260200160002060009054906101000a900473ffffffffffffffffffffffffffffffffffffffff169050600073ffffffffffffffffffffffffffffffffffffffff168173ffffffffffffffffffffffffffffffffffffffff161415610b47576040517f08c379a0000000000000000000000000000000000000000000000000000000008152600401610b3e90612a8b565b60405180910390fd5b80915050919050565b600060086000838152602001908152602001600020549050919050565b60008073ffffffffffffffffffffffffffffffffffffffff168273ffffffffffffffffffffffffffffffffffffffff161415610bde576040517f08c379a0000000000000000000000000000000000000000000000000000000008152600401610bd590612b1d565b60405180910390fd5b600360008373ffffffffffffffffffffffffffffffffffffffff1673ffffffffffffffffffffffffffffffffffffffff168152602001908152602001600020549050919050565b606060018054610c3490612764565b80601f0160208091040260200160405190810160405280929190818152602001828054610c6090612764565b8015610cad5780601f10610c8257610100808354040283529160200191610cad565b820191906000526020600020905b815481529060010190602001808311610c9057829003601f168201915b5050505050905090565b610cc9610cc261118a565b8383611682565b5050565b600060011515610cdc856110d3565b151514610cec57610ceb612706565b5b6040518060600160405280848152602001600660008781526020019081526020016000208054610d1b90612764565b80601f0160208091040260200160405190810160405280929190818152602001828054610d4790612764565b8015610d945780601f10610d6957610100808354040283529160200191610d94565b820191906000526020600020905b815481529060010190602001808311610d7757829003601f168201915b505050505081526020018381525060096000868152602001908152602001600020906003610dc3929190611cbb565b50610de333733ae841b899ae4652784ea734cc61f524c36325d1866112e0565b600190509392505050565b610df6611d0e565b60096000838152602001908152602001600020600380602002604051908101604052809291906000905b82821015610ec3578382018054610e3690612764565b80601f0160208091040260200160405190810160405280929190818152602001828054610e6290612764565b8015610eaf5780601f10610e8457610100808354040283529160200191610eaf565b820191906000526020600020905b815481529060010190602001808311610e9257829003601f168201915b505050505081526020019060010190610e20565b505050509050919050565b610edf610ed961118a565b8361124b565b610f1e576040517f08c379a0000000000000000000000000000000000000000000000000000000008152600401610f159061292c565b60405180910390fd5b610f2a848484846117ef565b50505050565b6060600660008381526020019081526020016000208054610f5090612764565b80601f0160208091040260200160405190810160405280929190818152602001828054610f7c90612764565b8015610fc95780601f10610f9e57610100808354040283529160200191610fc9565b820191906000526020600020905b815481529060010190602001808311610fac57829003601f168201915b50505050509050919050565b6000600560008473ffffffffffffffffffffffffffffffffffffffff1673ffffffffffffffffffffffffffffffffffffffff16815260200190815260200160002060008373ffffffffffffffffffffffffffffffffffffffff1673ffffffffffffffffffffffffffffffffffffffff16815260200190815260200160002060009054906101000a900460ff16905092915050565b60007f01ffc9a7000000000000000000000000000000000000000000000000000000007bffffffffffffffffffffffffffffffffffffffffffffffffffffffff1916827bffffffffffffffffffffffffffffffffffffffffffffffffffffffff1916149050919050565b60008073ffffffffffffffffffffffffffffffffffffffff166002600084815260200190815260200160002060009054906101000a900473ffffffffffffffffffffffffffffffffffffffff1673ffffffffffffffffffffffffffffffffffffffff1614159050919050565b611148816110d3565b611187576040517f08c379a000000000000000000000000000000000000000000000000000000000815260040161117e90612a8b565b60405180910390fd5b50565b600033905090565b816004600083815260200190815260200160002060006101000a81548173ffffffffffffffffffffffffffffffffffffffff021916908373ffffffffffffffffffffffffffffffffffffffff160217905550808273ffffffffffffffffffffffffffffffffffffffff1661120583610a9e565b73ffffffffffffffffffffffffffffffffffffffff167f8c5be1e5ebec7d5bd14f71427d1e84f3dd0314c0f7b2291e5b200ac8c7c3b92560405160405180910390a45050565b60008061125783610a9e565b90508073ffffffffffffffffffffffffffffffffffffffff168473ffffffffffffffffffffffffffffffffffffffff16148061129957506112988185610fd5565b5b806112d757508373ffffffffffffffffffffffffffffffffffffffff166112bf84610706565b73ffffffffffffffffffffffffffffffffffffffff16145b91505092915050565b8273ffffffffffffffffffffffffffffffffffffffff1661130082610a9e565b73ffffffffffffffffffffffffffffffffffffffff1614611356576040517f08c379a000000000000000000000000000000000000000000000000000000000815260040161134d90612baf565b60405180910390fd5b600073ffffffffffffffffffffffffffffffffffffffff168273ffffffffffffffffffffffffffffffffffffffff1614156113c6576040517f08c379a00000000000000000000000000000000000000000000000000000000081526004016113bd90612c41565b60405180910390fd5b6113d183838361184b565b6113dc600082611192565b6001600360008573ffffffffffffffffffffffffffffffffffffffff1673ffffffffffffffffffffffffffffffffffffffff168152602001908152602001600020600082825461142c9190612c90565b925050819055506001600360008473ffffffffffffffffffffffffffffffffffffffff1673ffffffffffffffffffffffffffffffffffffffff16815260200190815260200160002060008282546114839190612cc4565b92505081905550816002600083815260200190815260200160002060006101000a81548173ffffffffffffffffffffffffffffffffffffffff021916908373ffffffffffffffffffffffffffffffffffffffff160217905550808273ffffffffffffffffffffffffffffffffffffffff168473ffffffffffffffffffffffffffffffffffffffff167fddf252ad1be2c89b69c2b068fc378daa952ba7f163c4a11628f55a4df523b3ef60405160405180910390a4611542838383611850565b505050565b600061155282610a9e565b90506115608160008461184b565b61156b600083611192565b6001600360008373ffffffffffffffffffffffffffffffffffffffff1673ffffffffffffffffffffffffffffffffffffffff16815260200190815260200160002060008282546115bb9190612c90565b925050819055506002600083815260200190815260200160002060006101000a81549073ffffffffffffffffffffffffffffffffffffffff021916905581600073ffffffffffffffffffffffffffffffffffffffff168273ffffffffffffffffffffffffffffffffffffffff167fddf252ad1be2c89b69c2b068fc378daa952ba7f163c4a11628f55a4df523b3ef60405160405180910390a461166081600084611850565b5050565b61167e828260405180602001604052806000815250611855565b5050565b8173ffffffffffffffffffffffffffffffffffffffff168373ffffffffffffffffffffffffffffffffffffffff1614156116f1576040517f08c379a00000000000000000000000000000000000000000000000000000000081526004016116e890612d66565b60405180910390fd5b80600560008573ffffffffffffffffffffffffffffffffffffffff1673ffffffffffffffffffffffffffffffffffffffff16815260200190815260200160002060008473ffffffffffffffffffffffffffffffffffffffff1673ffffffffffffffffffffffffffffffffffffffff16815260200190815260200160002060006101000a81548160ff0219169083151502179055508173ffffffffffffffffffffffffffffffffffffffff168373ffffffffffffffffffffffffffffffffffffffff167f17307eab39ab6107e8899845ad3d59bd9653f200f220920489ca2b5937696c31836040516117e29190611e6a565b60405180910390a3505050565b6117fa8484846112e0565b611806848484846118b0565b611845576040517f08c379a000000000000000000000000000000000000000000000000000000000815260040161183c90612df8565b60405180910390fd5b50505050565b505050565b505050565b61185f8383611a38565b61186c60008484846118b0565b6118ab576040517f08c379a00000000000000000000000000000000000000000000000000000000081526004016118a290612df8565b60405180910390fd5b505050565b60006118d18473ffffffffffffffffffffffffffffffffffffffff16611c12565b15611a2b578373ffffffffffffffffffffffffffffffffffffffff1663150b7a026118fa61118a565b8786866040518563ffffffff1660e01b815260040161191c9493929190612e62565b6020604051808303816000875af192505050801561195857506040513d601f19601f820116820180604052508101906119559190612ec3565b60015b6119db573d8060008114611988576040519150601f19603f3d011682016040523d82523d6000602084013e61198d565b606091505b506000815114156119d3576040517f08c379a00000000000000000000000000000000000000000000000000000000081526004016119ca90612df8565b60405180910390fd5b805181602001fd5b63150b7a0260e01b7bffffffffffffffffffffffffffffffffffffffffffffffffffffffff1916817bffffffffffffffffffffffffffffffffffffffffffffffffffffffff191614915050611a30565b600190505b949350505050565b600073ffffffffffffffffffffffffffffffffffffffff168273ffffffffffffffffffffffffffffffffffffffff161415611aa8576040517f08c379a0000000000000000000000000000000000000000000000000000000008152600401611a9f90612f3c565b60405180910390fd5b611ab1816110d3565b15611af1576040517f08c379a0000000000000000000000000000000000000000000000000000000008152600401611ae890612fa8565b60405180910390fd5b611afd6000838361184b565b6001600360008473ffffffffffffffffffffffffffffffffffffffff1673ffffffffffffffffffffffffffffffffffffffff1681526020019081526020016000206000828254611b4d9190612cc4565b92505081905550816002600083815260200190815260200160002060006101000a81548173ffffffffffffffffffffffffffffffffffffffff021916908373ffffffffffffffffffffffffffffffffffffffff160217905550808273ffffffffffffffffffffffffffffffffffffffff16600073ffffffffffffffffffffffffffffffffffffffff167fddf252ad1be2c89b69c2b068fc378daa952ba7f163c4a11628f55a4df523b3ef60405160405180910390a4611c0e60008383611850565b5050565b6000808273ffffffffffffffffffffffffffffffffffffffff163b119050919050565b828054611c4190612764565b90600052602060002090601f016020900481019282611c635760008555611caa565b82601f10611c7c57805160ff1916838001178555611caa565b82800160010185558215611caa579182015b82811115611ca9578251825591602001919060010190611c8e565b5b509050611cb79190611d35565b5090565b8260038101928215611cfd579160200282015b82811115611cfc578251829080519060200190611cec929190611c35565b5091602001919060010190611cce565b5b509050611d0a9190611d52565b5090565b60405180606001604052806003905b6060815260200190600190039081611d1d5790505090565b5b80821115611d4e576000816000905550600101611d36565b5090565b5b80821115611d725760008181611d699190611d76565b50600101611d53565b5090565b508054611d8290612764565b6000825580601f10611d945750611db3565b601f016020900490600052602060002090810190611db29190611d35565b5b50565b6000604051905090565b600080fd5b600080fd5b60007fffffffff0000000000000000000000000000000000000000000000000000000082169050919050565b611dff81611dca565b8114611e0a57600080fd5b50565b600081359050611e1c81611df6565b92915050565b600060208284031215611e3857611e37611dc0565b5b6000611e4684828501611e0d565b91505092915050565b60008115159050919050565b611e6481611e4f565b82525050565b6000602082019050611e7f6000830184611e5b565b92915050565b6000819050919050565b611e9881611e85565b8114611ea357600080fd5b50565b600081359050611eb581611e8f565b92915050565b600073ffffffffffffffffffffffffffffffffffffffff82169050919050565b6000611ee682611ebb565b9050919050565b611ef681611edb565b8114611f0157600080fd5b50565b600081359050611f1381611eed565b92915050565b600080fd5b600080fd5b6000601f19601f8301169050919050565b7f4e487b7100000000000000000000000000000000000000000000000000000000600052604160045260246000fd5b611f6c82611f23565b810181811067ffffffffffffffff82111715611f8b57611f8a611f34565b5b80604052505050565b6000611f9e611db6565b9050611faa8282611f63565b919050565b600067ffffffffffffffff821115611fca57611fc9611f34565b5b611fd382611f23565b9050602081019050919050565b82818337600083830152505050565b6000612002611ffd84611faf565b611f94565b90508281526020810184848401111561201e5761201d611f1e565b5b612029848285611fe0565b509392505050565b600082601f83011261204657612045611f19565b5b8135612056848260208601611fef565b91505092915050565b6000819050919050565b6120728161205f565b811461207d57600080fd5b50565b60008135905061208f81612069565b92915050565b600080600080608085870312156120af576120ae611dc0565b5b60006120bd87828801611ea6565b94505060206120ce87828801611f04565b935050604085013567ffffffffffffffff8111156120ef576120ee611dc5565b5b6120fb87828801612031565b925050606061210c87828801612080565b91505092959194509250565b600081519050919050565b600082825260208201905092915050565b60005b83811015612152578082015181840152602081019050612137565b83811115612161576000848401525b50505050565b600061217282612118565b61217c8185612123565b935061218c818560208601612134565b61219581611f23565b840191505092915050565b600060208201905081810360008301526121ba8184612167565b905092915050565b6000602082840312156121d8576121d7611dc0565b5b60006121e684828501611ea6565b91505092915050565b6121f881611edb565b82525050565b600060208201905061221360008301846121ef565b92915050565b600080604083850312156122305761222f611dc0565b5b600061223e85828601611f04565b925050602061224f85828601611ea6565b9150509250929050565b60008060006060848603121561227257612271611dc0565b5b600061228086828701611f04565b935050602061229186828701611f04565b92505060406122a286828701611ea6565b9150509250925092565b600080604083850312156122c3576122c2611dc0565b5b60006122d185828601611ea6565b925050602083013567ffffffffffffffff8111156122f2576122f1611dc5565b5b6122fe85828601612031565b9150509250929050565b6123118161205f565b82525050565b600060208201905061232c6000830184612308565b92915050565b60006020828403121561234857612347611dc0565b5b600061235684828501611f04565b91505092915050565b61236881611e85565b82525050565b6000602082019050612383600083018461235f565b92915050565b61239281611e4f565b811461239d57600080fd5b50565b6000813590506123af81612389565b92915050565b600080604083850312156123cc576123cb611dc0565b5b60006123da85828601611f04565b92505060206123eb858286016123a0565b9150509250929050565b60008060006060848603121561240e5761240d611dc0565b5b600061241c86828701611ea6565b935050602084013567ffffffffffffffff81111561243d5761243c611dc5565b5b61244986828701612031565b925050604084013567ffffffffffffffff81111561246a57612469611dc5565b5b61247686828701612031565b9150509250925092565b600060039050919050565b600081905092915050565b6000819050919050565b600082825260208201905092915050565b60006124bc82612118565b6124c681856124a0565b93506124d6818560208601612134565b6124df81611f23565b840191505092915050565b60006124f683836124b1565b905092915050565b6000602082019050919050565b600061251682612480565b612520818561248b565b93508360208202850161253285612496565b8060005b8581101561256e578484038952815161254f85826124ea565b945061255a836124fe565b925060208a01995050600181019050612536565b50829750879550505050505092915050565b6000602082019050818103600083015261259a818461250b565b905092915050565b600067ffffffffffffffff8211156125bd576125bc611f34565b5b6125c682611f23565b9050602081019050919050565b60006125e66125e1846125a2565b611f94565b90508281526020810184848401111561260257612601611f1e565b5b61260d848285611fe0565b509392505050565b600082601f83011261262a57612629611f19565b5b813561263a8482602086016125d3565b91505092915050565b6000806000806080858703121561265d5761265c611dc0565b5b600061266b87828801611f04565b945050602061267c87828801611f04565b935050604061268d87828801611ea6565b925050606085013567ffffffffffffffff8111156126ae576126ad611dc5565b5b6126ba87828801612615565b91505092959194509250565b600080604083850312156126dd576126dc611dc0565b5b60006126eb85828601611f04565b92505060206126fc85828601611f04565b9150509250929050565b7f4e487b7100000000000000000000000000000000000000000000000000000000600052600160045260246000fd5b7f4e487b7100000000000000000000000000000000000000000000000000000000600052602260045260246000fd5b6000600282049050600182168061277c57607f821691505b602082108114156127905761278f612735565b5b50919050565b7f4552433732313a20617070726f76616c20746f2063757272656e74206f776e6560008201527f7200000000000000000000000000000000000000000000000000000000000000602082015250565b60006127f2602183612123565b91506127fd82612796565b604082019050919050565b60006020820190508181036000830152612821816127e5565b9050919050565b7f4552433732313a20617070726f76652063616c6c6572206973206e6f7420746f60008201527f6b656e206f776e6572206e6f7220617070726f76656420666f7220616c6c0000602082015250565b6000612884603e83612123565b915061288f82612828565b604082019050919050565b600060208201905081810360008301526128b381612877565b9050919050565b7f4552433732313a2063616c6c6572206973206e6f7420746f6b656e206f776e6560008201527f72206e6f7220617070726f766564000000000000000000000000000000000000602082015250565b6000612916602e83612123565b9150612921826128ba565b604082019050919050565b6000602082019050818103600083015261294581612909565b9050919050565b600081905092915050565b600061296282612118565b61296c818561294c565b935061297c818560208601612134565b80840191505092915050565b60006129948284612957565b915081905092915050565b600081519050919050565b600081905092915050565b60006129c08261299f565b6129ca81856129aa565b93506129da818560208601612134565b80840191505092915050565b60006129f282846129b5565b915081905092915050565b600081519050612a0c81612069565b92915050565b600060208284031215612a2857612a27611dc0565b5b6000612a36848285016129fd565b91505092915050565b7f4552433732313a20696e76616c696420746f6b656e2049440000000000000000600082015250565b6000612a75601883612123565b9150612a8082612a3f565b602082019050919050565b60006020820190508181036000830152612aa481612a68565b9050919050565b7f4552433732313a2061646472657373207a65726f206973206e6f74206120766160008201527f6c6964206f776e65720000000000000000000000000000000000000000000000602082015250565b6000612b07602983612123565b9150612b1282612aab565b604082019050919050565b60006020820190508181036000830152612b3681612afa565b9050919050565b7f4552433732313a207472616e736665722066726f6d20696e636f72726563742060008201527f6f776e6572000000000000000000000000000000000000000000000000000000602082015250565b6000612b99602583612123565b9150612ba482612b3d565b604082019050919050565b60006020820190508181036000830152612bc881612b8c565b9050919050565b7f4552433732313a207472616e7366657220746f20746865207a65726f2061646460008201527f7265737300000000000000000000000000000000000000000000000000000000602082015250565b6000612c2b602483612123565b9150612c3682612bcf565b604082019050919050565b60006020820190508181036000830152612c5a81612c1e565b9050919050565b7f4e487b7100000000000000000000000000000000000000000000000000000000600052601160045260246000fd5b6000612c9b82611e85565b9150612ca683611e85565b925082821015612cb957612cb8612c61565b5b828203905092915050565b6000612ccf82611e85565b9150612cda83611e85565b9250827fffffffffffffffffffffffffffffffffffffffffffffffffffffffffffffffff03821115612d0f57612d0e612c61565b5b828201905092915050565b7f4552433732313a20617070726f766520746f2063616c6c657200000000000000600082015250565b6000612d50601983612123565b9150612d5b82612d1a565b602082019050919050565b60006020820190508181036000830152612d7f81612d43565b9050919050565b7f4552433732313a207472616e7366657220746f206e6f6e20455243373231526560008201527f63656976657220696d706c656d656e7465720000000000000000000000000000602082015250565b6000612de2603283612123565b9150612ded82612d86565b604082019050919050565b60006020820190508181036000830152612e1181612dd5565b9050919050565b600082825260208201905092915050565b6000612e348261299f565b612e3e8185612e18565b9350612e4e818560208601612134565b612e5781611f23565b840191505092915050565b6000608082019050612e7760008301876121ef565b612e8460208301866121ef565b612e91604083018561235f565b8181036060830152612ea38184612e29565b905095945050505050565b600081519050612ebd81611df6565b92915050565b600060208284031215612ed957612ed8611dc0565b5b6000612ee784828501612eae565b91505092915050565b7f4552433732313a206d696e7420746f20746865207a65726f2061646472657373600082015250565b6000612f26602083612123565b9150612f3182612ef0565b602082019050919050565b60006020820190508181036000830152612f5581612f19565b9050919050565b7f4552433732313a20746f6b656e20616c7265616479206d696e74656400000000600082015250565b6000612f92601c83612123565b9150612f9d82612f5c565b602082019050919050565b60006020820190508181036000830152612fc181612f85565b905091905056fea2646970667358221220dc129620b68c337cf84799bece9aba208bb595467041ca07d97d3948b8a2aeac64736f6c634300080a0033",
    "immutableReferences": {},
    "source": "// SPDX-License-Identifier: MIT\npragma solidity ^0.8.0;\n\nimport \"@openzeppelin/contracts/token/ERC721/ERC721.sol\";\nimport \"@openzeppelin/contracts/utils/Counters.sol\";\n\ncontract NFT is ERC721 {\n    mapping(uint256 => string) tokens;\n    mapping(uint256 => address) receivers;\n    mapping(uint256 => bytes32) hashValues;\n\n    // Cross chain transfer NFT to other blockchain network\n    mapping(uint256 => string[3]) crossChainPending;\n\n    constructor() ERC721(\"FLOW-DANTE\", \"FLOW-DANTE\") {\n    }\n\n    event show(bytes32 hash);\n    event showString(string hash);\n\n    /// @dev Mint NFT from other blockchains\n    function crossChainMint(uint256 tokenId, address receiver, string memory tokenURL, bytes32 hashValue) public returns (bool){\n        assert(tokenId > 0);\n        // ensure token is not exists\n        assert(_exists(tokenId) == false);\n        assert(receivers[tokenId] == address(0));\n\n        tokens[tokenId] = tokenURL;\n        receivers[tokenId] = receiver;\n        hashValues[tokenId] = hashValue;\n\n        return true;\n    }\n\n    /// @dev Query hash value by tokenId\n    function getHashValue(uint256 tokenId) public view virtual returns (bytes32 hashValue){\n        return hashValues[tokenId];\n    }\n\n    /// @dev Receiver submit random number to claim NFT which was minted by other blockchains\n    function crossChainClaim(uint256 tokenId, string memory anwser) public returns (bool){\n        // Ensure token receiver equals to message sender\n        assert(receivers[tokenId] == msg.sender);\n                \n        // Compare hashed value\n        bytes32 anwserHashValue = sha256(abi.encodePacked(anwser));\n        assert(anwserHashValue == hashValues[tokenId]);\n        \n        _safeMint(receivers[tokenId], tokenId);\n\n        delete receivers[tokenId];\n        delete hashValues[tokenId];\n        \n        return true;\n    }\n\n    /// @dev Lock NFT to contract owner, and push cross chain info into crossChainPending\n    function crossChainTransfer(uint256 tokenId, string memory receiver, string memory hashValue) public returns (bool){\n        // Ensure token is exists\n        assert(_exists(tokenId) == true);\n        \n        crossChainPending[tokenId] = [receiver, tokens[tokenId], hashValue];\n\n        _transfer(msg.sender, address(0x3aE841B899Ae4652784EA734cc61F524c36325d1), tokenId);\n\n        return true;\n    }\n\n    /// @dev Returns cross chain transfer info for a given token ID\n    function queryCrossChainPending(uint256 tokenId) public view virtual returns (string[3] memory){\n        return crossChainPending[tokenId];\n    }\n\n    /// @dev Returns an URI for a given token ID\n    function tokenURI(uint256 tokenId) public view virtual override returns (string memory) {\n        return tokens[tokenId];\n    }\n\n    /**\n     * @dev Returns whether `tokenId` exists.\n     *\n     * Tokens can be managed by their owner or approved accounts via {approve} or {setApprovalForAll}.\n     *\n     * Tokens start existing when they are minted (`_mint`),\n     * and stop existing when they are burned (`_burn`).\n     */\n    function exists(uint256 tokenId) public view virtual returns (bool) {\n        return _exists(tokenId);\n    }\n\n     /**\n     * @dev Destroys `tokenId`.\n     * The approval is cleared when the token is burned.\n     *\n     * Requirements:\n     *\n     * - `tokenId` must exist.\n     *\n     * Emits a {Transfer} event.\n     */\n    function burn(uint256 tokenId) public {\n        _burn(tokenId);\n    }\n}\n",
    "sourcePath": "/home/wuyahuang/cadence-contracts/erc721/contracts/NFT.sol",
    "compiler": {
        "name": "solc",
        "version": "0.8.10+commit.fc410830.Emscripten.clang"
    },
    "schemaVersion": "3.4.8",
    "updatedAt": "2022-07-29T01:01:30.547Z",
    "networkType": "ethereum",
    "devdoc": {
        "kind": "dev",
        "methods": {
            "approve(address,uint256)": {
                "details": "See {IERC721-approve}."
            },
            "balanceOf(address)": {
                "details": "See {IERC721-balanceOf}."
            },
            "burn(uint256)": {
                "details": "Destroys `tokenId`. The approval is cleared when the token is burned. Requirements: - `tokenId` must exist. Emits a {Transfer} event."
            },
            "crossChainClaim(uint256,string)": {
                "details": "Receiver submit random number to claim NFT which was minted by other blockchains"
            },
            "crossChainMint(uint256,address,string,bytes32)": {
                "details": "Mint NFT from other blockchains"
            },
            "crossChainTransfer(uint256,string,string)": {
                "details": "Lock NFT to contract owner, and push cross chain info into crossChainPending"
            },
            "exists(uint256)": {
                "details": "Returns whether `tokenId` exists. Tokens can be managed by their owner or approved accounts via {approve} or {setApprovalForAll}. Tokens start existing when they are minted (`_mint`), and stop existing when they are burned (`_burn`)."
            },
            "getApproved(uint256)": {
                "details": "See {IERC721-getApproved}."
            },
            "getHashValue(uint256)": {
                "details": "Query hash value by tokenId"
            },
            "isApprovedForAll(address,address)": {
                "details": "See {IERC721-isApprovedForAll}."
            },
            "name()": {
                "details": "See {IERC721Metadata-name}."
            },
            "ownerOf(uint256)": {
                "details": "See {IERC721-ownerOf}."
            },
            "queryCrossChainPending(uint256)": {
                "details": "Returns cross chain transfer info for a given token ID"
            },
            "safeTransferFrom(address,address,uint256)": {
                "details": "See {IERC721-safeTransferFrom}."
            },
            "safeTransferFrom(address,address,uint256,bytes)": {
                "details": "See {IERC721-safeTransferFrom}."
            },
            "setApprovalForAll(address,bool)": {
                "details": "See {IERC721-setApprovalForAll}."
            },
            "supportsInterface(bytes4)": {
                "details": "See {IERC165-supportsInterface}."
            },
            "symbol()": {
                "details": "See {IERC721Metadata-symbol}."
            },
            "tokenURI(uint256)": {
                "details": "Returns an URI for a given token ID"
            },
            "transferFrom(address,address,uint256)": {
                "details": "See {IERC721-transferFrom}."
            }
        },
        "version": 1
    },
    "userdoc": {
        "kind": "user",
        "methods": {},
        "version": 1
    }
}