{
  "contractName": "NFT",
  "abi": [
    {
      "inputs": [],
      "stateMutability": "nonpayable",
      "type": "constructor"
    },
    {
      "anonymous": false,
      "inputs": [
        {
          "indexed": true,
          "internalType": "address",
          "name": "owner",
          "type": "address"
        },
        {
          "indexed": true,
          "internalType": "address",
          "name": "approved",
          "type": "address"
        },
        {
          "indexed": true,
          "internalType": "uint256",
          "name": "tokenId",
          "type": "uint256"
        }
      ],
      "name": "Approval",
      "type": "event"
    },
    {
      "anonymous": false,
      "inputs": [
        {
          "indexed": true,
          "internalType": "address",
          "name": "owner",
          "type": "address"
        },
        {
          "indexed": true,
          "internalType": "address",
          "name": "operator",
          "type": "address"
        },
        {
          "indexed": false,
          "internalType": "bool",
          "name": "approved",
          "type": "bool"
        }
      ],
      "name": "ApprovalForAll",
      "type": "event"
    },
    {
      "anonymous": false,
      "inputs": [
        {
          "indexed": true,
          "internalType": "address",
          "name": "from",
          "type": "address"
        },
        {
          "indexed": true,
          "internalType": "address",
          "name": "to",
          "type": "address"
        },
        {
          "indexed": true,
          "internalType": "uint256",
          "name": "tokenId",
          "type": "uint256"
        }
      ],
      "name": "Transfer",
      "type": "event"
    },
    {
      "inputs": [
        {
          "internalType": "address",
          "name": "to",
          "type": "address"
        },
        {
          "internalType": "uint256",
          "name": "tokenId",
          "type": "uint256"
        }
      ],
      "name": "approve",
      "outputs": [],
      "stateMutability": "nonpayable",
      "type": "function"
    },
    {
      "inputs": [
        {
          "internalType": "address",
          "name": "owner",
          "type": "address"
        }
      ],
      "name": "balanceOf",
      "outputs": [
        {
          "internalType": "uint256",
          "name": "",
          "type": "uint256"
        }
      ],
      "stateMutability": "view",
      "type": "function",
      "constant": true
    },
    {
      "inputs": [],
      "name": "baseTokenURI",
      "outputs": [
        {
          "internalType": "string",
          "name": "",
          "type": "string"
        }
      ],
      "stateMutability": "view",
      "type": "function",
      "constant": true
    },
    {
      "inputs": [
        {
          "internalType": "uint256",
          "name": "tokenId",
          "type": "uint256"
        }
      ],
      "name": "getApproved",
      "outputs": [
        {
          "internalType": "address",
          "name": "",
          "type": "address"
        }
      ],
      "stateMutability": "view",
      "type": "function",
      "constant": true
    },
    {
      "inputs": [
        {
          "internalType": "address",
          "name": "owner",
          "type": "address"
        },
        {
          "internalType": "address",
          "name": "operator",
          "type": "address"
        }
      ],
      "name": "isApprovedForAll",
      "outputs": [
        {
          "internalType": "bool",
          "name": "",
          "type": "bool"
        }
      ],
      "stateMutability": "view",
      "type": "function",
      "constant": true
    },
    {
      "inputs": [],
      "name": "name",
      "outputs": [
        {
          "internalType": "string",
          "name": "",
          "type": "string"
        }
      ],
      "stateMutability": "view",
      "type": "function",
      "constant": true
    },
    {
      "inputs": [
        {
          "internalType": "uint256",
          "name": "tokenId",
          "type": "uint256"
        }
      ],
      "name": "ownerOf",
      "outputs": [
        {
          "internalType": "address",
          "name": "",
          "type": "address"
        }
      ],
      "stateMutability": "view",
      "type": "function",
      "constant": true
    },
    {
      "inputs": [
        {
          "internalType": "address",
          "name": "from",
          "type": "address"
        },
        {
          "internalType": "address",
          "name": "to",
          "type": "address"
        },
        {
          "internalType": "uint256",
          "name": "tokenId",
          "type": "uint256"
        }
      ],
      "name": "safeTransferFrom",
      "outputs": [],
      "stateMutability": "nonpayable",
      "type": "function"
    },
    {
      "inputs": [
        {
          "internalType": "address",
          "name": "from",
          "type": "address"
        },
        {
          "internalType": "address",
          "name": "to",
          "type": "address"
        },
        {
          "internalType": "uint256",
          "name": "tokenId",
          "type": "uint256"
        },
        {
          "internalType": "bytes",
          "name": "_data",
          "type": "bytes"
        }
      ],
      "name": "safeTransferFrom",
      "outputs": [],
      "stateMutability": "nonpayable",
      "type": "function"
    },
    {
      "inputs": [
        {
          "internalType": "address",
          "name": "operator",
          "type": "address"
        },
        {
          "internalType": "bool",
          "name": "approved",
          "type": "bool"
        }
      ],
      "name": "setApprovalForAll",
      "outputs": [],
      "stateMutability": "nonpayable",
      "type": "function"
    },
    {
      "inputs": [
        {
          "internalType": "bytes4",
          "name": "interfaceId",
          "type": "bytes4"
        }
      ],
      "name": "supportsInterface",
      "outputs": [
        {
          "internalType": "bool",
          "name": "",
          "type": "bool"
        }
      ],
      "stateMutability": "view",
      "type": "function",
      "constant": true
    },
    {
      "inputs": [],
      "name": "symbol",
      "outputs": [
        {
          "internalType": "string",
          "name": "",
          "type": "string"
        }
      ],
      "stateMutability": "view",
      "type": "function",
      "constant": true
    },
    {
      "inputs": [
        {
          "internalType": "uint256",
          "name": "tokenId",
          "type": "uint256"
        }
      ],
      "name": "tokenURI",
      "outputs": [
        {
          "internalType": "string",
          "name": "",
          "type": "string"
        }
      ],
      "stateMutability": "view",
      "type": "function",
      "constant": true
    },
    {
      "inputs": [
        {
          "internalType": "address",
          "name": "from",
          "type": "address"
        },
        {
          "internalType": "address",
          "name": "to",
          "type": "address"
        },
        {
          "internalType": "uint256",
          "name": "tokenId",
          "type": "uint256"
        }
      ],
      "name": "transferFrom",
      "outputs": [],
      "stateMutability": "nonpayable",
      "type": "function"
    },
    {
      "inputs": [
        {
          "internalType": "address",
          "name": "recipient",
          "type": "address"
        }
      ],
      "name": "mintTo",
      "outputs": [
        {
          "internalType": "uint256",
          "name": "",
          "type": "uint256"
        }
      ],
      "stateMutability": "nonpayable",
      "type": "function"
    },
    {
      "inputs": [
        {
          "internalType": "string",
          "name": "_baseTokenURI",
          "type": "string"
        }
      ],
      "name": "setBaseTokenURI",
      "outputs": [],
      "stateMutability": "nonpayable",
      "type": "function"
    }
  ],
  "bytecode": "0x60806040523480156200001157600080fd5b506040518060400160405280600a81526020017f464c4f572d44414e5445000000000000000000000000000000000000000000008152506040518060400160405280600a81526020017f464c4f572d44414e544500000000000000000000000000000000000000000000815250816000908051906020019062000096929190620000e0565b508060019080519060200190620000af929190620000e0565b5050506040518060200160405280600081525060079080519060200190620000d9929190620000e0565b50620001f5565b828054620000ee90620001bf565b90600052602060002090601f0160209004810192826200011257600085556200015e565b82601f106200012d57805160ff19168380011785556200015e565b828001600101855582156200015e579182015b828111156200015d57825182559160200191906001019062000140565b5b5090506200016d919062000171565b5090565b5b808211156200018c57600081600090555060010162000172565b5090565b7f4e487b7100000000000000000000000000000000000000000000000000000000600052602260045260246000fd5b60006002820490506001821680620001d857607f821691505b60208210811415620001ef57620001ee62000190565b5b50919050565b612a6d80620002056000396000f3fe608060405234801561001057600080fd5b50600436106101005760003560e01c806370a0823111610097578063b88d4fde11610066578063b88d4fde146102bd578063c87b56dd146102d9578063d547cfb714610309578063e985e9c51461032757610100565b806370a0823114610223578063755edd171461025357806395d89b4114610283578063a22cb465146102a157610100565b806323b872dd116100d357806323b872dd1461019f57806330176e13146101bb57806342842e0e146101d75780636352211e146101f357610100565b806301ffc9a71461010557806306fdde0314610135578063081812fc14610153578063095ea7b314610183575b600080fd5b61011f600480360381019061011a91906118cd565b610357565b60405161012c9190611915565b60405180910390f35b61013d610439565b60405161014a91906119c9565b60405180910390f35b61016d60048036038101906101689190611a21565b6104cb565b60405161017a9190611a8f565b60405180910390f35b61019d60048036038101906101989190611ad6565b610550565b005b6101b960048036038101906101b49190611b16565b610668565b005b6101d560048036038101906101d09190611c9e565b6106c8565b005b6101f160048036038101906101ec9190611b16565b6106e2565b005b61020d60048036038101906102089190611a21565b610702565b60405161021a9190611a8f565b60405180910390f35b61023d60048036038101906102389190611ce7565b6107b4565b60405161024a9190611d23565b60405180910390f35b61026d60048036038101906102689190611ce7565b61086c565b60405161027a9190611d23565b60405180910390f35b61028b610899565b60405161029891906119c9565b60405180910390f35b6102bb60048036038101906102b69190611d6a565b61092b565b005b6102d760048036038101906102d29190611e4b565b610941565b005b6102f360048036038101906102ee9190611a21565b6109a3565b60405161030091906119c9565b60405180910390f35b610311610a4a565b60405161031e91906119c9565b60405180910390f35b610341600480360381019061033c9190611ece565b610ad8565b60405161034e9190611915565b60405180910390f35b60007f80ac58cd000000000000000000000000000000000000000000000000000000007bffffffffffffffffffffffffffffffffffffffffffffffffffffffff1916827bffffffffffffffffffffffffffffffffffffffffffffffffffffffff1916148061042257507f5b5e139f000000000000000000000000000000000000000000000000000000007bffffffffffffffffffffffffffffffffffffffffffffffffffffffff1916827bffffffffffffffffffffffffffffffffffffffffffffffffffffffff1916145b80610432575061043182610b6c565b5b9050919050565b60606000805461044890611f3d565b80601f016020809104026020016040519081016040528092919081815260200182805461047490611f3d565b80156104c15780601f10610496576101008083540402835291602001916104c1565b820191906000526020600020905b8154815290600101906020018083116104a457829003601f168201915b5050505050905090565b60006104d682610bd6565b610515576040517f08c379a000000000000000000000000000000000000000000000000000000000815260040161050c90611fe1565b60405180910390fd5b6004600083815260200190815260200160002060009054906101000a900473ffffffffffffffffffffffffffffffffffffffff169050919050565b600061055b82610702565b90508073ffffffffffffffffffffffffffffffffffffffff168373ffffffffffffffffffffffffffffffffffffffff1614156105cc576040517f08c379a00000000000000000000000000000000000000000000000000000000081526004016105c390612073565b60405180910390fd5b8073ffffffffffffffffffffffffffffffffffffffff166105eb610c42565b73ffffffffffffffffffffffffffffffffffffffff16148061061a575061061981610614610c42565b610ad8565b5b610659576040517f08c379a000000000000000000000000000000000000000000000000000000000815260040161065090612105565b60405180910390fd5b6106638383610c4a565b505050565b610679610673610c42565b82610d03565b6106b8576040517f08c379a00000000000000000000000000000000000000000000000000000000081526004016106af90612197565b60405180910390fd5b6106c3838383610de1565b505050565b80600790805190602001906106de9291906117be565b5050565b6106fd83838360405180602001604052806000815250610941565b505050565b6000806002600084815260200190815260200160002060009054906101000a900473ffffffffffffffffffffffffffffffffffffffff169050600073ffffffffffffffffffffffffffffffffffffffff168173ffffffffffffffffffffffffffffffffffffffff1614156107ab576040517f08c379a00000000000000000000000000000000000000000000000000000000081526004016107a290612229565b60405180910390fd5b80915050919050565b60008073ffffffffffffffffffffffffffffffffffffffff168273ffffffffffffffffffffffffffffffffffffffff161415610825576040517f08c379a000000000000000000000000000000000000000000000000000000000815260040161081c906122bb565b60405180910390fd5b600360008373ffffffffffffffffffffffffffffffffffffffff1673ffffffffffffffffffffffffffffffffffffffff168152602001908152602001600020549050919050565b60006108786006611048565b6000610884600661105e565b9050610890838261106c565b80915050919050565b6060600180546108a890611f3d565b80601f01602080910402602001604051908101604052809291908181526020018280546108d490611f3d565b80156109215780601f106108f657610100808354040283529160200191610921565b820191906000526020600020905b81548152906001019060200180831161090457829003601f168201915b5050505050905090565b61093d610936610c42565b838361108a565b5050565b61095261094c610c42565b83610d03565b610991576040517f08c379a000000000000000000000000000000000000000000000000000000000815260040161098890612197565b60405180910390fd5b61099d848484846111f7565b50505050565b60606109ae82610bd6565b6109ed576040517f08c379a00000000000000000000000000000000000000000000000000000000081526004016109e49061234d565b60405180910390fd5b60006109f7611253565b90506000815111610a175760405180602001604052806000815250610a42565b80610a2184611273565b604051602001610a329291906123a9565b6040516020818303038152906040525b915050919050565b60078054610a5790611f3d565b80601f0160208091040260200160405190810160405280929190818152602001828054610a8390611f3d565b8015610ad05780601f10610aa557610100808354040283529160200191610ad0565b820191906000526020600020905b815481529060010190602001808311610ab357829003601f168201915b505050505081565b6000600560008473ffffffffffffffffffffffffffffffffffffffff1673ffffffffffffffffffffffffffffffffffffffff16815260200190815260200160002060008373ffffffffffffffffffffffffffffffffffffffff1673ffffffffffffffffffffffffffffffffffffffff16815260200190815260200160002060009054906101000a900460ff16905092915050565b60007f01ffc9a7000000000000000000000000000000000000000000000000000000007bffffffffffffffffffffffffffffffffffffffffffffffffffffffff1916827bffffffffffffffffffffffffffffffffffffffffffffffffffffffff1916149050919050565b60008073ffffffffffffffffffffffffffffffffffffffff166002600084815260200190815260200160002060009054906101000a900473ffffffffffffffffffffffffffffffffffffffff1673ffffffffffffffffffffffffffffffffffffffff1614159050919050565b600033905090565b816004600083815260200190815260200160002060006101000a81548173ffffffffffffffffffffffffffffffffffffffff021916908373ffffffffffffffffffffffffffffffffffffffff160217905550808273ffffffffffffffffffffffffffffffffffffffff16610cbd83610702565b73ffffffffffffffffffffffffffffffffffffffff167f8c5be1e5ebec7d5bd14f71427d1e84f3dd0314c0f7b2291e5b200ac8c7c3b92560405160405180910390a45050565b6000610d0e82610bd6565b610d4d576040517f08c379a0000000000000000000000000000000000000000000000000000000008152600401610d449061243f565b60405180910390fd5b6000610d5883610702565b90508073ffffffffffffffffffffffffffffffffffffffff168473ffffffffffffffffffffffffffffffffffffffff161480610d9a5750610d998185610ad8565b5b80610dd857508373ffffffffffffffffffffffffffffffffffffffff16610dc0846104cb565b73ffffffffffffffffffffffffffffffffffffffff16145b91505092915050565b8273ffffffffffffffffffffffffffffffffffffffff16610e0182610702565b73ffffffffffffffffffffffffffffffffffffffff1614610e57576040517f08c379a0000000000000000000000000000000000000000000000000000000008152600401610e4e906124d1565b60405180910390fd5b600073ffffffffffffffffffffffffffffffffffffffff168273ffffffffffffffffffffffffffffffffffffffff161415610ec7576040517f08c379a0000000000000000000000000000000000000000000000000000000008152600401610ebe90612563565b60405180910390fd5b610ed28383836113d4565b610edd600082610c4a565b6001600360008573ffffffffffffffffffffffffffffffffffffffff1673ffffffffffffffffffffffffffffffffffffffff1681526020019081526020016000206000828254610f2d91906125b2565b925050819055506001600360008473ffffffffffffffffffffffffffffffffffffffff1673ffffffffffffffffffffffffffffffffffffffff1681526020019081526020016000206000828254610f8491906125e6565b92505081905550816002600083815260200190815260200160002060006101000a81548173ffffffffffffffffffffffffffffffffffffffff021916908373ffffffffffffffffffffffffffffffffffffffff160217905550808273ffffffffffffffffffffffffffffffffffffffff168473ffffffffffffffffffffffffffffffffffffffff167fddf252ad1be2c89b69c2b068fc378daa952ba7f163c4a11628f55a4df523b3ef60405160405180910390a46110438383836113d9565b505050565b6001816000016000828254019250508190555050565b600081600001549050919050565b6110868282604051806020016040528060008152506113de565b5050565b8173ffffffffffffffffffffffffffffffffffffffff168373ffffffffffffffffffffffffffffffffffffffff1614156110f9576040517f08c379a00000000000000000000000000000000000000000000000000000000081526004016110f090612688565b60405180910390fd5b80600560008573ffffffffffffffffffffffffffffffffffffffff1673ffffffffffffffffffffffffffffffffffffffff16815260200190815260200160002060008473ffffffffffffffffffffffffffffffffffffffff1673ffffffffffffffffffffffffffffffffffffffff16815260200190815260200160002060006101000a81548160ff0219169083151502179055508173ffffffffffffffffffffffffffffffffffffffff168373ffffffffffffffffffffffffffffffffffffffff167f17307eab39ab6107e8899845ad3d59bd9653f200f220920489ca2b5937696c31836040516111ea9190611915565b60405180910390a3505050565b611202848484610de1565b61120e84848484611439565b61124d576040517f08c379a00000000000000000000000000000000000000000000000000000000081526004016112449061271a565b60405180910390fd5b50505050565b60606040518060600160405280603981526020016129ff60399139905090565b606060008214156112bb576040518060400160405280600181526020017f300000000000000000000000000000000000000000000000000000000000000081525090506113cf565b600082905060005b600082146112ed5780806112d69061273a565b915050600a826112e691906127b2565b91506112c3565b60008167ffffffffffffffff81111561130957611308611b73565b5b6040519080825280601f01601f19166020018201604052801561133b5781602001600182028036833780820191505090505b5090505b600085146113c85760018261135491906125b2565b9150600a8561136391906127e3565b603061136f91906125e6565b60f81b81838151811061138557611384612814565b5b60200101907effffffffffffffffffffffffffffffffffffffffffffffffffffffffffffff1916908160001a905350600a856113c191906127b2565b945061133f565b8093505050505b919050565b505050565b505050565b6113e883836115c1565b6113f56000848484611439565b611434576040517f08c379a000000000000000000000000000000000000000000000000000000000815260040161142b9061271a565b60405180910390fd5b505050565b600061145a8473ffffffffffffffffffffffffffffffffffffffff1661179b565b156115b4578373ffffffffffffffffffffffffffffffffffffffff1663150b7a02611483610c42565b8786866040518563ffffffff1660e01b81526004016114a59493929190612898565b6020604051808303816000875af19250505080156114e157506040513d601f19601f820116820180604052508101906114de91906128f9565b60015b611564573d8060008114611511576040519150601f19603f3d011682016040523d82523d6000602084013e611516565b606091505b5060008151141561155c576040517f08c379a00000000000000000000000000000000000000000000000000000000081526004016115539061271a565b60405180910390fd5b805181602001fd5b63150b7a0260e01b7bffffffffffffffffffffffffffffffffffffffffffffffffffffffff1916817bffffffffffffffffffffffffffffffffffffffffffffffffffffffff1916149150506115b9565b600190505b949350505050565b600073ffffffffffffffffffffffffffffffffffffffff168273ffffffffffffffffffffffffffffffffffffffff161415611631576040517f08c379a000000000000000000000000000000000000000000000000000000000815260040161162890612972565b60405180910390fd5b61163a81610bd6565b1561167a576040517f08c379a0000000000000000000000000000000000000000000000000000000008152600401611671906129de565b60405180910390fd5b611686600083836113d4565b6001600360008473ffffffffffffffffffffffffffffffffffffffff1673ffffffffffffffffffffffffffffffffffffffff16815260200190815260200160002060008282546116d691906125e6565b92505081905550816002600083815260200190815260200160002060006101000a81548173ffffffffffffffffffffffffffffffffffffffff021916908373ffffffffffffffffffffffffffffffffffffffff160217905550808273ffffffffffffffffffffffffffffffffffffffff16600073ffffffffffffffffffffffffffffffffffffffff167fddf252ad1be2c89b69c2b068fc378daa952ba7f163c4a11628f55a4df523b3ef60405160405180910390a4611797600083836113d9565b5050565b6000808273ffffffffffffffffffffffffffffffffffffffff163b119050919050565b8280546117ca90611f3d565b90600052602060002090601f0160209004810192826117ec5760008555611833565b82601f1061180557805160ff1916838001178555611833565b82800160010185558215611833579182015b82811115611832578251825591602001919060010190611817565b5b5090506118409190611844565b5090565b5b8082111561185d576000816000905550600101611845565b5090565b6000604051905090565b600080fd5b600080fd5b60007fffffffff0000000000000000000000000000000000000000000000000000000082169050919050565b6118aa81611875565b81146118b557600080fd5b50565b6000813590506118c7816118a1565b92915050565b6000602082840312156118e3576118e261186b565b5b60006118f1848285016118b8565b91505092915050565b60008115159050919050565b61190f816118fa565b82525050565b600060208201905061192a6000830184611906565b92915050565b600081519050919050565b600082825260208201905092915050565b60005b8381101561196a57808201518184015260208101905061194f565b83811115611979576000848401525b50505050565b6000601f19601f8301169050919050565b600061199b82611930565b6119a5818561193b565b93506119b581856020860161194c565b6119be8161197f565b840191505092915050565b600060208201905081810360008301526119e38184611990565b905092915050565b6000819050919050565b6119fe816119eb565b8114611a0957600080fd5b50565b600081359050611a1b816119f5565b92915050565b600060208284031215611a3757611a3661186b565b5b6000611a4584828501611a0c565b91505092915050565b600073ffffffffffffffffffffffffffffffffffffffff82169050919050565b6000611a7982611a4e565b9050919050565b611a8981611a6e565b82525050565b6000602082019050611aa46000830184611a80565b92915050565b611ab381611a6e565b8114611abe57600080fd5b50565b600081359050611ad081611aaa565b92915050565b60008060408385031215611aed57611aec61186b565b5b6000611afb85828601611ac1565b9250506020611b0c85828601611a0c565b9150509250929050565b600080600060608486031215611b2f57611b2e61186b565b5b6000611b3d86828701611ac1565b9350506020611b4e86828701611ac1565b9250506040611b5f86828701611a0c565b9150509250925092565b600080fd5b600080fd5b7f4e487b7100000000000000000000000000000000000000000000000000000000600052604160045260246000fd5b611bab8261197f565b810181811067ffffffffffffffff82111715611bca57611bc9611b73565b5b80604052505050565b6000611bdd611861565b9050611be98282611ba2565b919050565b600067ffffffffffffffff821115611c0957611c08611b73565b5b611c128261197f565b9050602081019050919050565b82818337600083830152505050565b6000611c41611c3c84611bee565b611bd3565b905082815260208101848484011115611c5d57611c5c611b6e565b5b611c68848285611c1f565b509392505050565b600082601f830112611c8557611c84611b69565b5b8135611c95848260208601611c2e565b91505092915050565b600060208284031215611cb457611cb361186b565b5b600082013567ffffffffffffffff811115611cd257611cd1611870565b5b611cde84828501611c70565b91505092915050565b600060208284031215611cfd57611cfc61186b565b5b6000611d0b84828501611ac1565b91505092915050565b611d1d816119eb565b82525050565b6000602082019050611d386000830184611d14565b92915050565b611d47816118fa565b8114611d5257600080fd5b50565b600081359050611d6481611d3e565b92915050565b60008060408385031215611d8157611d8061186b565b5b6000611d8f85828601611ac1565b9250506020611da085828601611d55565b9150509250929050565b600067ffffffffffffffff821115611dc557611dc4611b73565b5b611dce8261197f565b9050602081019050919050565b6000611dee611de984611daa565b611bd3565b905082815260208101848484011115611e0a57611e09611b6e565b5b611e15848285611c1f565b509392505050565b600082601f830112611e3257611e31611b69565b5b8135611e42848260208601611ddb565b91505092915050565b60008060008060808587031215611e6557611e6461186b565b5b6000611e7387828801611ac1565b9450506020611e8487828801611ac1565b9350506040611e9587828801611a0c565b925050606085013567ffffffffffffffff811115611eb657611eb5611870565b5b611ec287828801611e1d565b91505092959194509250565b60008060408385031215611ee557611ee461186b565b5b6000611ef385828601611ac1565b9250506020611f0485828601611ac1565b9150509250929050565b7f4e487b7100000000000000000000000000000000000000000000000000000000600052602260045260246000fd5b60006002820490506001821680611f5557607f821691505b60208210811415611f6957611f68611f0e565b5b50919050565b7f4552433732313a20617070726f76656420717565727920666f72206e6f6e657860008201527f697374656e7420746f6b656e0000000000000000000000000000000000000000602082015250565b6000611fcb602c8361193b565b9150611fd682611f6f565b604082019050919050565b60006020820190508181036000830152611ffa81611fbe565b9050919050565b7f4552433732313a20617070726f76616c20746f2063757272656e74206f776e6560008201527f7200000000000000000000000000000000000000000000000000000000000000602082015250565b600061205d60218361193b565b915061206882612001565b604082019050919050565b6000602082019050818103600083015261208c81612050565b9050919050565b7f4552433732313a20617070726f76652063616c6c6572206973206e6f74206f7760008201527f6e6572206e6f7220617070726f76656420666f7220616c6c0000000000000000602082015250565b60006120ef60388361193b565b91506120fa82612093565b604082019050919050565b6000602082019050818103600083015261211e816120e2565b9050919050565b7f4552433732313a207472616e736665722063616c6c6572206973206e6f74206f60008201527f776e6572206e6f7220617070726f766564000000000000000000000000000000602082015250565b600061218160318361193b565b915061218c82612125565b604082019050919050565b600060208201905081810360008301526121b081612174565b9050919050565b7f4552433732313a206f776e657220717565727920666f72206e6f6e657869737460008201527f656e7420746f6b656e0000000000000000000000000000000000000000000000602082015250565b600061221360298361193b565b915061221e826121b7565b604082019050919050565b6000602082019050818103600083015261224281612206565b9050919050565b7f4552433732313a2062616c616e636520717565727920666f7220746865207a6560008201527f726f206164647265737300000000000000000000000000000000000000000000602082015250565b60006122a5602a8361193b565b91506122b082612249565b604082019050919050565b600060208201905081810360008301526122d481612298565b9050919050565b7f4552433732314d657461646174613a2055524920717565727920666f72206e6f60008201527f6e6578697374656e7420746f6b656e0000000000000000000000000000000000602082015250565b6000612337602f8361193b565b9150612342826122db565b604082019050919050565b600060208201905081810360008301526123668161232a565b9050919050565b600081905092915050565b600061238382611930565b61238d818561236d565b935061239d81856020860161194c565b80840191505092915050565b60006123b58285612378565b91506123c18284612378565b91508190509392505050565b7f4552433732313a206f70657261746f7220717565727920666f72206e6f6e657860008201527f697374656e7420746f6b656e0000000000000000000000000000000000000000602082015250565b6000612429602c8361193b565b9150612434826123cd565b604082019050919050565b600060208201905081810360008301526124588161241c565b9050919050565b7f4552433732313a207472616e736665722066726f6d20696e636f72726563742060008201527f6f776e6572000000000000000000000000000000000000000000000000000000602082015250565b60006124bb60258361193b565b91506124c68261245f565b604082019050919050565b600060208201905081810360008301526124ea816124ae565b9050919050565b7f4552433732313a207472616e7366657220746f20746865207a65726f2061646460008201527f7265737300000000000000000000000000000000000000000000000000000000602082015250565b600061254d60248361193b565b9150612558826124f1565b604082019050919050565b6000602082019050818103600083015261257c81612540565b9050919050565b7f4e487b7100000000000000000000000000000000000000000000000000000000600052601160045260246000fd5b60006125bd826119eb565b91506125c8836119eb565b9250828210156125db576125da612583565b5b828203905092915050565b60006125f1826119eb565b91506125fc836119eb565b9250827fffffffffffffffffffffffffffffffffffffffffffffffffffffffffffffffff0382111561263157612630612583565b5b828201905092915050565b7f4552433732313a20617070726f766520746f2063616c6c657200000000000000600082015250565b600061267260198361193b565b915061267d8261263c565b602082019050919050565b600060208201905081810360008301526126a181612665565b9050919050565b7f4552433732313a207472616e7366657220746f206e6f6e20455243373231526560008201527f63656976657220696d706c656d656e7465720000000000000000000000000000602082015250565b600061270460328361193b565b915061270f826126a8565b604082019050919050565b60006020820190508181036000830152612733816126f7565b9050919050565b6000612745826119eb565b91507fffffffffffffffffffffffffffffffffffffffffffffffffffffffffffffffff82141561277857612777612583565b5b600182019050919050565b7f4e487b7100000000000000000000000000000000000000000000000000000000600052601260045260246000fd5b60006127bd826119eb565b91506127c8836119eb565b9250826127d8576127d7612783565b5b828204905092915050565b60006127ee826119eb565b91506127f9836119eb565b92508261280957612808612783565b5b828206905092915050565b7f4e487b7100000000000000000000000000000000000000000000000000000000600052603260045260246000fd5b600081519050919050565b600082825260208201905092915050565b600061286a82612843565b612874818561284e565b935061288481856020860161194c565b61288d8161197f565b840191505092915050565b60006080820190506128ad6000830187611a80565b6128ba6020830186611a80565b6128c76040830185611d14565b81810360608301526128d9818461285f565b905095945050505050565b6000815190506128f3816118a1565b92915050565b60006020828403121561290f5761290e61186b565b5b600061291d848285016128e4565b91505092915050565b7f4552433732313a206d696e7420746f20746865207a65726f2061646472657373600082015250565b600061295c60208361193b565b915061296782612926565b602082019050919050565b6000602082019050818103600083015261298b8161294f565b9050919050565b7f4552433732313a20746f6b656e20616c7265616479206d696e74656400000000600082015250565b60006129c8601c8361193b565b91506129d382612992565b602082019050919050565b600060208201905081810360008301526129f7816129bb565b905091905056fe68747470733a2f2f7261772e67697468756275736572636f6e74656e742e636f6d2f777579616875616e672f6f70656e7365612f6d61696e2fa2646970667358221220bd9307b3642f072018820cff0f4f138e0e8ec8ad730caaf1929a0fe309c5dd6664736f6c634300080a0033",
  "immutableReferences": {},
  "source": "// SPDX-License-Identifier: MIT\npragma solidity ^0.8.0;\n\nimport \"@openzeppelin/contracts/token/ERC721/ERC721.sol\";\nimport \"@openzeppelin/contracts/utils/Counters.sol\";\n\ncontract NFT is ERC721 {\n    using Counters for Counters.Counter;\n\n    Counters.Counter private currentTokenId;\n\n    /// @dev Base token URI used as a prefix by tokenURI().\n    string public baseTokenURI;\n\n    constructor() ERC721(\"FLOW-DANTE\", \"FLOW-DANTE\") {\n        baseTokenURI = \"\";\n    }\n\n    function mintTo(address recipient) public returns (uint256) {\n        currentTokenId.increment();\n        uint256 newItemId = currentTokenId.current();\n        _safeMint(recipient, newItemId);\n        return newItemId;\n    }\n\n    /// @dev Returns an URI for a given token ID\n    function _baseURI() internal view virtual override returns (string memory) {\n        return \"https://raw.githubusercontent.com/wuyahuang/opensea/main/\";\n    }\n\n    /// @dev Sets the base token URI prefix.\n    function setBaseTokenURI(string memory _baseTokenURI) public {\n        baseTokenURI = _baseTokenURI;\n    }\n}\n",
  "sourcePath": "/root/flow/cadence-contracts/erc721/contracts/NFT.sol",
  "compiler": {
    "name": "solc",
    "version": "0.8.10+commit.fc410830.Emscripten.clang"
  },
  "schemaVersion": "3.4.7",
  "updatedAt": "2022-06-21T09:10:10.487Z",
  "networkType": "ethereum",
  "devdoc": {
    "kind": "dev",
    "methods": {
      "approve(address,uint256)": {
        "details": "See {IERC721-approve}."
      },
      "balanceOf(address)": {
        "details": "See {IERC721-balanceOf}."
      },
      "getApproved(uint256)": {
        "details": "See {IERC721-getApproved}."
      },
      "isApprovedForAll(address,address)": {
        "details": "See {IERC721-isApprovedForAll}."
      },
      "name()": {
        "details": "See {IERC721Metadata-name}."
      },
      "ownerOf(uint256)": {
        "details": "See {IERC721-ownerOf}."
      },
      "safeTransferFrom(address,address,uint256)": {
        "details": "See {IERC721-safeTransferFrom}."
      },
      "safeTransferFrom(address,address,uint256,bytes)": {
        "details": "See {IERC721-safeTransferFrom}."
      },
      "setApprovalForAll(address,bool)": {
        "details": "See {IERC721-setApprovalForAll}."
      },
      "setBaseTokenURI(string)": {
        "details": "Sets the base token URI prefix."
      },
      "supportsInterface(bytes4)": {
        "details": "See {IERC165-supportsInterface}."
      },
      "symbol()": {
        "details": "See {IERC721Metadata-symbol}."
      },
      "tokenURI(uint256)": {
        "details": "See {IERC721Metadata-tokenURI}."
      },
      "transferFrom(address,address,uint256)": {
        "details": "See {IERC721-transferFrom}."
      }
    },
    "stateVariables": {
      "baseTokenURI": {
        "details": "Base token URI used as a prefix by tokenURI()."
      }
    },
    "version": 1
  },
  "userdoc": {
    "kind": "user",
    "methods": {},
    "version": 1
  }
}